{
  "contractName": "ERC721Enumerable",
  "abi": [
    {
      "anonymous": false,
      "inputs": [
        {
          "indexed": true,
          "internalType": "address",
          "name": "from",
          "type": "address"
        },
        {
          "indexed": true,
          "internalType": "address",
          "name": "to",
          "type": "address"
        },
        {
          "indexed": true,
          "internalType": "uint256",
          "name": "tokenId",
          "type": "uint256"
        }
      ],
      "name": "Transfer",
      "type": "event"
    },
    {
      "inputs": [
        {
          "internalType": "address",
          "name": "_owner",
          "type": "address"
        }
      ],
      "name": "balanceOf",
      "outputs": [
        {
          "internalType": "uint256",
          "name": "",
          "type": "uint256"
        }
      ],
      "stateMutability": "view",
      "type": "function"
    },
    {
      "inputs": [
        {
          "internalType": "uint256",
          "name": "_tokenId",
          "type": "uint256"
        }
      ],
      "name": "ownerOf",
      "outputs": [
        {
          "internalType": "address",
          "name": "",
          "type": "address"
        }
      ],
      "stateMutability": "view",
      "type": "function"
    },
    {
      "inputs": [
        {
          "internalType": "address",
          "name": "_from",
          "type": "address"
        },
        {
          "internalType": "address",
          "name": "_to",
          "type": "address"
        },
        {
          "internalType": "uint256",
          "name": "_tokenId",
          "type": "uint256"
        }
      ],
      "name": "transferFrom",
      "outputs": [],
      "stateMutability": "payable",
      "type": "function"
    },
    {
      "inputs": [],
      "name": "totalSupply",
      "outputs": [
        {
          "internalType": "uint256",
          "name": "",
          "type": "uint256"
        }
      ],
      "stateMutability": "view",
      "type": "function"
    },
    {
      "inputs": [
        {
          "internalType": "uint256",
          "name": "index",
          "type": "uint256"
        }
      ],
      "name": "tokenByIndex",
      "outputs": [
        {
          "internalType": "uint256",
          "name": "",
          "type": "uint256"
        }
      ],
      "stateMutability": "view",
      "type": "function"
    },
    {
      "inputs": [
        {
          "internalType": "address",
          "name": "ownerAddress",
          "type": "address"
        },
        {
          "internalType": "uint256",
          "name": "index",
          "type": "uint256"
        }
      ],
      "name": "tokenOfOwnerByIndex",
      "outputs": [
        {
          "internalType": "uint256",
          "name": "",
          "type": "uint256"
        }
      ],
      "stateMutability": "view",
      "type": "function"
    }
  ],
  "bytecode": "0x608060405234801561001057600080fd5b50610c67806100206000396000f3fe6080604052600436106100555760003560e01c806318160ddd1461005a57806323b872dd146100855780632f745c59146100a15780634f6ccce7146100de5780636352211e1461011b57806370a0823114610158575b600080fd5b34801561006657600080fd5b5061006f610195565b60405161007c9190610704565b60405180910390f35b61009f600480360381019061009a91906107ae565b6101a2565b005b3480156100ad57600080fd5b506100c860048036038101906100c39190610801565b6101b2565b6040516100d59190610704565b60405180910390f35b3480156100ea57600080fd5b5061010560048036038101906101009190610841565b61029e565b6040516101129190610704565b60405180910390f35b34801561012757600080fd5b50610142600480360381019061013d9190610841565b610341565b60405161014f919061087d565b60405180910390f35b34801561016457600080fd5b5061017f600480360381019061017a9190610898565b6103f2565b60405161018c9190610704565b60405180910390f35b6000600380549050905090565b6101ad8383836104aa565b505050565b60003073ffffffffffffffffffffffffffffffffffffffff166370a08231846040518263ffffffff1660e01b81526004016101ed919061087d565b602060405180830381865afa15801561020a573d6000803e3d6000fd5b505050506040513d601f19601f8201168201806040525081019061022e91906108da565b82111561023a57600080fd5b600560008473ffffffffffffffffffffffffffffffffffffffff1673ffffffffffffffffffffffffffffffffffffffff168152602001908152602001600020828154811061028b5761028a610907565b5b9060005260206000200154905092915050565b60003073ffffffffffffffffffffffffffffffffffffffff166318160ddd6040518163ffffffff1660e01b8152600401602060405180830381865afa1580156102eb573d6000803e3d6000fd5b505050506040513d601f19601f8201168201806040525081019061030f91906108da565b82111561031b57600080fd5b6003828154811061032f5761032e610907565b5b90600052602060002001549050919050565b60008060008084815260200190815260200160002060009054906101000a900473ffffffffffffffffffffffffffffffffffffffff169050600073ffffffffffffffffffffffffffffffffffffffff168173ffffffffffffffffffffffffffffffffffffffff1614156103e9576040517f08c379a00000000000000000000000000000000000000000000000000000000081526004016103e0906109b9565b60405180910390fd5b80915050919050565b60008073ffffffffffffffffffffffffffffffffffffffff168273ffffffffffffffffffffffffffffffffffffffff161415610463576040517f08c379a000000000000000000000000000000000000000000000000000000000815260040161045a90610a4b565b60405180910390fd5b600160008373ffffffffffffffffffffffffffffffffffffffff1673ffffffffffffffffffffffffffffffffffffffff168152602001908152602001600020549050919050565b600073ffffffffffffffffffffffffffffffffffffffff168273ffffffffffffffffffffffffffffffffffffffff16141561051a576040517f08c379a000000000000000000000000000000000000000000000000000000000815260040161051190610add565b60405180910390fd5b8273ffffffffffffffffffffffffffffffffffffffff1661053a82610341565b73ffffffffffffffffffffffffffffffffffffffff1614610590576040517f08c379a000000000000000000000000000000000000000000000000000000000815260040161058790610b6f565b60405180910390fd5b600160008473ffffffffffffffffffffffffffffffffffffffff1673ffffffffffffffffffffffffffffffffffffffff16815260200190815260200160002060008154809291906105e090610bbe565b9190505550600160008373ffffffffffffffffffffffffffffffffffffffff1673ffffffffffffffffffffffffffffffffffffffff168152602001908152602001600020600081548092919061063590610be8565b91905055508160008083815260200190815260200160002060006101000a81548173ffffffffffffffffffffffffffffffffffffffff021916908373ffffffffffffffffffffffffffffffffffffffff160217905550808273ffffffffffffffffffffffffffffffffffffffff168473ffffffffffffffffffffffffffffffffffffffff167fddf252ad1be2c89b69c2b068fc378daa952ba7f163c4a11628f55a4df523b3ef60405160405180910390a4505050565b6000819050919050565b6106fe816106eb565b82525050565b600060208201905061071960008301846106f5565b92915050565b600080fd5b600073ffffffffffffffffffffffffffffffffffffffff82169050919050565b600061074f82610724565b9050919050565b61075f81610744565b811461076a57600080fd5b50565b60008135905061077c81610756565b92915050565b61078b816106eb565b811461079657600080fd5b50565b6000813590506107a881610782565b92915050565b6000806000606084860312156107c7576107c661071f565b5b60006107d58682870161076d565b93505060206107e68682870161076d565b92505060406107f786828701610799565b9150509250925092565b600080604083850312156108185761081761071f565b5b60006108268582860161076d565b925050602061083785828601610799565b9150509250929050565b6000602082840312156108575761085661071f565b5b600061086584828501610799565b91505092915050565b61087781610744565b82525050565b6000602082019050610892600083018461086e565b92915050565b6000602082840312156108ae576108ad61071f565b5b60006108bc8482850161076d565b91505092915050565b6000815190506108d481610782565b92915050565b6000602082840312156108f0576108ef61071f565b5b60006108fe848285016108c5565b91505092915050565b7f4e487b7100000000000000000000000000000000000000000000000000000000600052603260045260246000fd5b600082825260208201905092915050565b7f4552433732313a207a65726f206164647265737320666f72207468697320746f60008201527f6b656e4964000000000000000000000000000000000000000000000000000000602082015250565b60006109a3602583610936565b91506109ae82610947565b604082019050919050565b600060208201905081810360008301526109d281610996565b9050919050565b7f4552433732313a2063616e2774207175657279207468652062616c616e63652060008201527f6f66207a65726f20616464726573730000000000000000000000000000000000602082015250565b6000610a35602f83610936565b9150610a40826109d9565b604082019050919050565b60006020820190508181036000830152610a6481610a28565b9050919050565b7f4572726f723a2043616e6e6f74207472616e7366657220746f20746865207a6560008201527f726f206164647265737300000000000000000000000000000000000000000000602082015250565b6000610ac7602a83610936565b9150610ad282610a6b565b604082019050919050565b60006020820190508181036000830152610af681610aba565b9050919050565b7f4572726f723a2043616e6e6f74207472616e73666572206120746f6b656e206e60008201527f6f74206f776e656420627920796f752100000000000000000000000000000000602082015250565b6000610b59603083610936565b9150610b6482610afd565b604082019050919050565b60006020820190508181036000830152610b8881610b4c565b9050919050565b7f4e487b7100000000000000000000000000000000000000000000000000000000600052601160045260246000fd5b6000610bc9826106eb565b91506000821415610bdd57610bdc610b8f565b5b600182039050919050565b6000610bf3826106eb565b91507fffffffffffffffffffffffffffffffffffffffffffffffffffffffffffffffff821415610c2657610c25610b8f565b5b60018201905091905056fea2646970667358221220d079fa6e2efcf58756bd2a17beed9c54e93eb6fb2eafb3c4192baefe1511f35c64736f6c634300080b0033",
  "immutableReferences": {},
  "source": "// SPDX-License-Identifier: MIT\r\npragma solidity >=0.4.22 <0.9.0;\r\n\r\nimport './ERC721.sol';\r\n\r\ncontract ERC721Enumerable is ERC721 {\r\n  uint256[] private _allTokens;\r\n\r\n  // tokenId to position in _allTokens array\r\n  // better name: whereIsEachTokenStoredInAllTokensArray\r\n  mapping(uint256 => uint256) private _allTokensIndex;\r\n\r\n  // owner to list of all tokenIds owned\r\n  // no need to init empty array for each entry?\r\n  // better name: whoOwnWhatTokens\r\n  mapping(address => uint256[]) private _ownedTokens;\r\n\r\n  // tokenId to index of the owner tokens list\r\n  // more explainitory name: whichTokenRefersToWhatIndexInOwnedTokens\r\n  mapping(uint256 => uint256) private _ownedTokensIndex;\r\n\r\n  // returns the total supply from the _allTokens array\r\n  function totalSupply() external view returns (uint256) {\r\n    return _allTokens.length;\r\n  }\r\n\r\n  // better name: getTokenByIndex()\r\n  function tokenByIndex(uint256 index) public view returns (uint256) {\r\n    // guard clause to make sure index is not out of bound\r\n    // if calling totalSupply in the require statement it causes an error, says it's not yet visible?\r\n    // but calling it with this.totalSupply() works\r\n    require(index <= this.totalSupply());\r\n    return _allTokens[index];\r\n  }\r\n\r\n  //\r\n  function tokenOfOwnerByIndex(address ownerAddress, uint256 index)\r\n    public\r\n    view\r\n    returns (uint256)\r\n  {\r\n    // I reckon this require line will break because balanceOf() doesn't return a number but an object\r\n    // needs to use .then() to get the balanceInstance but not sure how to do it currently\r\n    require(index <= this.balanceOf(ownerAddress));\r\n    return _ownedTokens[ownerAddress][index];\r\n  }\r\n\r\n  function _mint(address to, uint256 tokenId) internal override(ERC721) {\r\n    // call_mint() from parent class, which is ERC721 in this case\r\n    super._mint(to, tokenId);\r\n    // add tokens to our totalSupply\r\n    _addTokensToAllTokenEnumeration(tokenId);\r\n\r\n    // add tokens to the owner\r\n    _addTokensToOwnerEnumeration(to, tokenId);\r\n  }\r\n\r\n  function _addTokensToAllTokenEnumeration(uint256 tokenId) private {\r\n    _allTokensIndex[tokenId] = _allTokens.length;\r\n    _allTokens.push(tokenId);\r\n  }\r\n\r\n  function _addTokensToOwnerEnumeration(address to, uint256 tokenId) private {\r\n    // add address and tokenId to the _ownedTokens\r\n    _ownedTokens[to].push(tokenId);\r\n    // ownedTokensIndex tokenId set to address of the ownedToken position\r\n    _ownedTokensIndex[tokenId] = _ownedTokens[to].length;\r\n  }\r\n}\r\n",
  "sourcePath": "C:\\Users\\coding-guy\\Documents\\blockchain\\nft-marketplace\\src\\contracts\\ERC721Enumerable.sol",
  "compiler": {
    "name": "solc",
    "version": "0.8.11+commit.d7f03943.Emscripten.clang"
  },
  "schemaVersion": "3.4.3",
  "updatedAt": "2022-02-08T10:01:32.091Z",
  "devdoc": {
    "kind": "dev",
    "methods": {},
    "version": 1
  },
  "userdoc": {
    "kind": "user",
    "methods": {},
    "version": 1
  }
}