{
  "contractName": "ERC721",
  "abi": [
    {
      "anonymous": false,
      "inputs": [
        {
          "indexed": true,
          "internalType": "address",
          "name": "from",
          "type": "address"
        },
        {
          "indexed": true,
          "internalType": "address",
          "name": "to",
          "type": "address"
        },
        {
          "indexed": true,
          "internalType": "uint256",
          "name": "tokenId",
          "type": "uint256"
        }
      ],
      "name": "Transfer",
      "type": "event"
    },
    {
      "inputs": [
        {
          "internalType": "address",
          "name": "_owner",
          "type": "address"
        }
      ],
      "name": "balanceOf",
      "outputs": [
        {
          "internalType": "uint256",
          "name": "",
          "type": "uint256"
        }
      ],
      "stateMutability": "view",
      "type": "function"
    },
    {
      "inputs": [
        {
          "internalType": "uint256",
          "name": "_tokenId",
          "type": "uint256"
        }
      ],
      "name": "ownerOf",
      "outputs": [
        {
          "internalType": "address",
          "name": "",
          "type": "address"
        }
      ],
      "stateMutability": "view",
      "type": "function"
    },
    {
      "inputs": [
        {
          "internalType": "address",
          "name": "_from",
          "type": "address"
        },
        {
          "internalType": "address",
          "name": "_to",
          "type": "address"
        },
        {
          "internalType": "uint256",
          "name": "_tokenId",
          "type": "uint256"
        }
      ],
      "name": "transferFrom",
      "outputs": [],
      "stateMutability": "payable",
      "type": "function"
    }
  ],
  "bytecode": "0x608060405234801561001057600080fd5b50610954806100206000396000f3fe6080604052600436106100345760003560e01c806323b872dd146100395780636352211e1461005557806370a0823114610092575b600080fd5b610053600480360381019061004e9190610522565b6100cf565b005b34801561006157600080fd5b5061007c60048036038101906100779190610575565b6100df565b60405161008991906105b1565b60405180910390f35b34801561009e57600080fd5b506100b960048036038101906100b491906105cc565b610190565b6040516100c69190610608565b60405180910390f35b6100da838383610248565b505050565b60008060008084815260200190815260200160002060009054906101000a900473ffffffffffffffffffffffffffffffffffffffff169050600073ffffffffffffffffffffffffffffffffffffffff168173ffffffffffffffffffffffffffffffffffffffff161415610187576040517f08c379a000000000000000000000000000000000000000000000000000000000815260040161017e906106a6565b60405180910390fd5b80915050919050565b60008073ffffffffffffffffffffffffffffffffffffffff168273ffffffffffffffffffffffffffffffffffffffff161415610201576040517f08c379a00000000000000000000000000000000000000000000000000000000081526004016101f890610738565b60405180910390fd5b600160008373ffffffffffffffffffffffffffffffffffffffff1673ffffffffffffffffffffffffffffffffffffffff168152602001908152602001600020549050919050565b600073ffffffffffffffffffffffffffffffffffffffff168273ffffffffffffffffffffffffffffffffffffffff1614156102b8576040517f08c379a00000000000000000000000000000000000000000000000000000000081526004016102af906107ca565b60405180910390fd5b8273ffffffffffffffffffffffffffffffffffffffff166102d8826100df565b73ffffffffffffffffffffffffffffffffffffffff161461032e576040517f08c379a00000000000000000000000000000000000000000000000000000000081526004016103259061085c565b60405180910390fd5b600160008473ffffffffffffffffffffffffffffffffffffffff1673ffffffffffffffffffffffffffffffffffffffff168152602001908152602001600020600081548092919061037e906108ab565b9190505550600160008373ffffffffffffffffffffffffffffffffffffffff1673ffffffffffffffffffffffffffffffffffffffff16815260200190815260200160002060008154809291906103d3906108d5565b91905055508160008083815260200190815260200160002060006101000a81548173ffffffffffffffffffffffffffffffffffffffff021916908373ffffffffffffffffffffffffffffffffffffffff160217905550808273ffffffffffffffffffffffffffffffffffffffff168473ffffffffffffffffffffffffffffffffffffffff167fddf252ad1be2c89b69c2b068fc378daa952ba7f163c4a11628f55a4df523b3ef60405160405180910390a4505050565b600080fd5b600073ffffffffffffffffffffffffffffffffffffffff82169050919050565b60006104b98261048e565b9050919050565b6104c9816104ae565b81146104d457600080fd5b50565b6000813590506104e6816104c0565b92915050565b6000819050919050565b6104ff816104ec565b811461050a57600080fd5b50565b60008135905061051c816104f6565b92915050565b60008060006060848603121561053b5761053a610489565b5b6000610549868287016104d7565b935050602061055a868287016104d7565b925050604061056b8682870161050d565b9150509250925092565b60006020828403121561058b5761058a610489565b5b60006105998482850161050d565b91505092915050565b6105ab816104ae565b82525050565b60006020820190506105c660008301846105a2565b92915050565b6000602082840312156105e2576105e1610489565b5b60006105f0848285016104d7565b91505092915050565b610602816104ec565b82525050565b600060208201905061061d60008301846105f9565b92915050565b600082825260208201905092915050565b7f4552433732313a207a65726f206164647265737320666f72207468697320746f60008201527f6b656e4964000000000000000000000000000000000000000000000000000000602082015250565b6000610690602583610623565b915061069b82610634565b604082019050919050565b600060208201905081810360008301526106bf81610683565b9050919050565b7f4552433732313a2063616e2774207175657279207468652062616c616e63652060008201527f6f66207a65726f20616464726573730000000000000000000000000000000000602082015250565b6000610722602f83610623565b915061072d826106c6565b604082019050919050565b6000602082019050818103600083015261075181610715565b9050919050565b7f4572726f723a2043616e6e6f74207472616e7366657220746f20746865207a6560008201527f726f206164647265737300000000000000000000000000000000000000000000602082015250565b60006107b4602a83610623565b91506107bf82610758565b604082019050919050565b600060208201905081810360008301526107e3816107a7565b9050919050565b7f4572726f723a2043616e6e6f74207472616e73666572206120746f6b656e206e60008201527f6f74206f776e656420627920796f752100000000000000000000000000000000602082015250565b6000610846603083610623565b9150610851826107ea565b604082019050919050565b6000602082019050818103600083015261087581610839565b9050919050565b7f4e487b7100000000000000000000000000000000000000000000000000000000600052601160045260246000fd5b60006108b6826104ec565b915060008214156108ca576108c961087c565b5b600182039050919050565b60006108e0826104ec565b91507fffffffffffffffffffffffffffffffffffffffffffffffffffffffffffffffff8214156109135761091261087c565b5b60018201905091905056fea2646970667358221220bbdcb7edb2ee05f58625b097fda09c4d46bbd7a02eecc2460ad54376d65f20d264736f6c634300080b0033",
  "immutableReferences": {},
  "source": "// SPDX-License-Identifier: MIT\r\npragma solidity >=0.4.22 <0.9.0;\r\n\r\n/*\r\n  What does a mint function do?\r\n  - keep track of the address\r\n  - keep track of the tokenIds\r\n  - who has which NFT, which address is mapped to which tokenId\r\n  - how many NFT that person has\r\n  - create en event that emit a transfer log\r\n    - contract address\r\n    - where it is being minted to \r\n    - tokenId\r\n  \r\n   */\r\n\r\ncontract ERC721 {\r\n  event Transfer(\r\n    address indexed from,\r\n    address indexed to,\r\n    uint256 indexed tokenId\r\n  );\r\n\r\n  // which tokenId belongs to which owner\r\n  mapping(uint256 => address) private _tokenOwner;\r\n  // how many tokens each owner has\r\n  mapping(address => uint256) private _ownedTokenCount;\r\n  // tokenId to approved address\r\n  mapping(uint256 => address) private _tokenApprovals;\r\n\r\n  function _exist(uint256 tokenId) internal view returns (bool) {\r\n    // setting the address of NFT owner, check the mapping\r\n    address owner = _tokenOwner[tokenId];\r\n    // returns true if that tokenId is mapped to an owner (address isn't zero)\r\n    return owner != address(0);\r\n  }\r\n\r\n  function _mint(address to, uint256 tokenId) internal virtual {\r\n    // requires the address isn't zero\r\n    require(to != address(0), 'ERC721: minting to the zero address.');\r\n    // requires the token has not already been minted\r\n    require(!_exist(tokenId), 'ERC721: token already existed.');\r\n    // set the _tokenOwner of the tokenId to the address argument to\r\n    _tokenOwner[tokenId] = to;\r\n    // increase the count of that owner\r\n    _ownedTokenCount[to]++;\r\n    // emit the event\r\n    emit Transfer(address(0), to, tokenId);\r\n  }\r\n\r\n  function balanceOf(address _owner) public view returns (uint256) {\r\n    require(\r\n      _owner != address(0),\r\n      \"ERC721: can't query the balance of zero address\"\r\n    );\r\n    return _ownedTokenCount[_owner];\r\n  }\r\n\r\n  function ownerOf(uint256 _tokenId) public view returns (address) {\r\n    address owner = _tokenOwner[_tokenId];\r\n    require(owner != address(0), 'ERC721: zero address for this tokenId');\r\n    return owner;\r\n  }\r\n\r\n  function _transferFrom(\r\n    address _from,\r\n    address _to,\r\n    uint256 _tokenId\r\n  ) internal {\r\n    require(_to != address(0), 'Error: Cannot transfer to the zero address');\r\n    require(\r\n      ownerOf(_tokenId) == _from,\r\n      'Error: Cannot transfer a token not owned by you!'\r\n    );\r\n    // decerement the token from the person transfer out\r\n    _ownedTokenCount[_from]--;\r\n    // increment the token for the person tranfer to\r\n    _ownedTokenCount[_to]++;\r\n    // assign token to new owner\r\n    _tokenOwner[_tokenId] = _to;\r\n\r\n    emit Transfer(_from, _to, _tokenId);\r\n  }\r\n\r\n  function transferFrom(\r\n    address _from,\r\n    address _to,\r\n    uint256 _tokenId\r\n  ) public payable {\r\n    _transferFrom(_from, _to, _tokenId);\r\n  }\r\n}\r\n",
  "sourcePath": "C:\\Users\\coding-guy\\Documents\\blockchain\\nft-marketplace\\src\\contracts\\ERC721.sol",
  "compiler": {
    "name": "solc",
    "version": "0.8.11+commit.d7f03943.Emscripten.clang"
  },
  "schemaVersion": "3.4.3",
  "updatedAt": "2022-02-08T10:01:32.075Z",
  "devdoc": {
    "kind": "dev",
    "methods": {},
    "version": 1
  },
  "userdoc": {
    "kind": "user",
    "methods": {},
    "version": 1
  }
}