{
  "contractName": "ERC721Connector",
  "abi": [
    {
      "inputs": [
        {
          "internalType": "string",
          "name": "name",
          "type": "string"
        },
        {
          "internalType": "string",
          "name": "symbol",
          "type": "string"
        }
      ],
      "stateMutability": "nonpayable",
      "type": "constructor"
    },
    {
      "anonymous": false,
      "inputs": [
        {
          "indexed": true,
          "internalType": "address",
          "name": "from",
          "type": "address"
        },
        {
          "indexed": true,
          "internalType": "address",
          "name": "to",
          "type": "address"
        },
        {
          "indexed": true,
          "internalType": "uint256",
          "name": "tokenId",
          "type": "uint256"
        }
      ],
      "name": "Transfer",
      "type": "event"
    },
    {
      "inputs": [
        {
          "internalType": "address",
          "name": "_owner",
          "type": "address"
        }
      ],
      "name": "balanceOf",
      "outputs": [
        {
          "internalType": "uint256",
          "name": "",
          "type": "uint256"
        }
      ],
      "stateMutability": "view",
      "type": "function"
    },
    {
      "inputs": [],
      "name": "getName",
      "outputs": [
        {
          "internalType": "string",
          "name": "",
          "type": "string"
        }
      ],
      "stateMutability": "view",
      "type": "function"
    },
    {
      "inputs": [],
      "name": "getSymbol",
      "outputs": [
        {
          "internalType": "string",
          "name": "",
          "type": "string"
        }
      ],
      "stateMutability": "view",
      "type": "function"
    },
    {
      "inputs": [
        {
          "internalType": "uint256",
          "name": "_tokenId",
          "type": "uint256"
        }
      ],
      "name": "ownerOf",
      "outputs": [
        {
          "internalType": "address",
          "name": "",
          "type": "address"
        }
      ],
      "stateMutability": "view",
      "type": "function"
    },
    {
      "inputs": [
        {
          "internalType": "uint256",
          "name": "index",
          "type": "uint256"
        }
      ],
      "name": "tokenByIndex",
      "outputs": [
        {
          "internalType": "uint256",
          "name": "",
          "type": "uint256"
        }
      ],
      "stateMutability": "view",
      "type": "function"
    },
    {
      "inputs": [
        {
          "internalType": "address",
          "name": "ownerAddress",
          "type": "address"
        },
        {
          "internalType": "uint256",
          "name": "index",
          "type": "uint256"
        }
      ],
      "name": "tokenOfOwnerByIndex",
      "outputs": [
        {
          "internalType": "uint256",
          "name": "",
          "type": "uint256"
        }
      ],
      "stateMutability": "view",
      "type": "function"
    },
    {
      "inputs": [],
      "name": "totalSupply",
      "outputs": [
        {
          "internalType": "uint256",
          "name": "",
          "type": "uint256"
        }
      ],
      "stateMutability": "view",
      "type": "function"
    },
    {
      "inputs": [
        {
          "internalType": "address",
          "name": "_from",
          "type": "address"
        },
        {
          "internalType": "address",
          "name": "_to",
          "type": "address"
        },
        {
          "internalType": "uint256",
          "name": "_tokenId",
          "type": "uint256"
        }
      ],
      "name": "transferFrom",
      "outputs": [],
      "stateMutability": "payable",
      "type": "function"
    }
  ],
  "bytecode": "0x60806040523480156200001157600080fd5b50604051620012d0380380620012d08339818101604052810190620000379190620002c2565b818181600090805190602001906200005192919062000075565b5080600190805190602001906200006a92919062000075565b5050505050620003ac565b828054620000839062000376565b90600052602060002090601f016020900481019282620000a75760008555620000f3565b82601f10620000c257805160ff1916838001178555620000f3565b82800160010185558215620000f3579182015b82811115620000f2578251825591602001919060010190620000d5565b5b50905062000102919062000106565b5090565b5b808211156200012157600081600090555060010162000107565b5090565b6000604051905090565b600080fd5b600080fd5b600080fd5b600080fd5b6000601f19601f8301169050919050565b7f4e487b7100000000000000000000000000000000000000000000000000000000600052604160045260246000fd5b6200018e8262000143565b810181811067ffffffffffffffff82111715620001b057620001af62000154565b5b80604052505050565b6000620001c562000125565b9050620001d3828262000183565b919050565b600067ffffffffffffffff821115620001f657620001f562000154565b5b620002018262000143565b9050602081019050919050565b60005b838110156200022e57808201518184015260208101905062000211565b838111156200023e576000848401525b50505050565b60006200025b6200025584620001d8565b620001b9565b9050828152602081018484840111156200027a57620002796200013e565b5b620002878482856200020e565b509392505050565b600082601f830112620002a757620002a662000139565b5b8151620002b984826020860162000244565b91505092915050565b60008060408385031215620002dc57620002db6200012f565b5b600083015167ffffffffffffffff811115620002fd57620002fc62000134565b5b6200030b858286016200028f565b925050602083015167ffffffffffffffff8111156200032f576200032e62000134565b5b6200033d858286016200028f565b9150509250929050565b7f4e487b7100000000000000000000000000000000000000000000000000000000600052602260045260246000fd5b600060028204905060018216806200038f57607f821691505b60208210811415620003a657620003a562000347565b5b50919050565b610f1480620003bc6000396000f3fe60806040526004361061007b5760003560e01c80632f745c591161004e5780632f745c591461011d5780634f6ccce71461015a5780636352211e1461019757806370a08231146101d45761007b565b8063150704011461008057806317d7de7c146100ab57806318160ddd146100d657806323b872dd14610101575b600080fd5b34801561008c57600080fd5b50610095610211565b6040516100a29190610926565b60405180910390f35b3480156100b757600080fd5b506100c06102a3565b6040516100cd9190610926565b60405180910390f35b3480156100e257600080fd5b506100eb610335565b6040516100f89190610961565b60405180910390f35b61011b60048036038101906101169190610a0b565b610342565b005b34801561012957600080fd5b50610144600480360381019061013f9190610a5e565b610352565b6040516101519190610961565b60405180910390f35b34801561016657600080fd5b50610181600480360381019061017c9190610a9e565b61043e565b60405161018e9190610961565b60405180910390f35b3480156101a357600080fd5b506101be60048036038101906101b99190610a9e565b6104e1565b6040516101cb9190610ada565b60405180910390f35b3480156101e057600080fd5b506101fb60048036038101906101f69190610af5565b610593565b6040516102089190610961565b60405180910390f35b60606001805461022090610b51565b80601f016020809104026020016040519081016040528092919081815260200182805461024c90610b51565b80156102995780601f1061026e57610100808354040283529160200191610299565b820191906000526020600020905b81548152906001019060200180831161027c57829003601f168201915b5050505050905090565b6060600080546102b290610b51565b80601f01602080910402602001604051908101604052809291908181526020018280546102de90610b51565b801561032b5780601f106103005761010080835404028352916020019161032b565b820191906000526020600020905b81548152906001019060200180831161030e57829003601f168201915b5050505050905090565b6000600580549050905090565b61034d83838361064b565b505050565b60003073ffffffffffffffffffffffffffffffffffffffff166370a08231846040518263ffffffff1660e01b815260040161038d9190610ada565b602060405180830381865afa1580156103aa573d6000803e3d6000fd5b505050506040513d601f19601f820116820180604052508101906103ce9190610b98565b8211156103da57600080fd5b600760008473ffffffffffffffffffffffffffffffffffffffff1673ffffffffffffffffffffffffffffffffffffffff168152602001908152602001600020828154811061042b5761042a610bc5565b5b9060005260206000200154905092915050565b60003073ffffffffffffffffffffffffffffffffffffffff166318160ddd6040518163ffffffff1660e01b8152600401602060405180830381865afa15801561048b573d6000803e3d6000fd5b505050506040513d601f19601f820116820180604052508101906104af9190610b98565b8211156104bb57600080fd5b600582815481106104cf576104ce610bc5565b5b90600052602060002001549050919050565b6000806002600084815260200190815260200160002060009054906101000a900473ffffffffffffffffffffffffffffffffffffffff169050600073ffffffffffffffffffffffffffffffffffffffff168173ffffffffffffffffffffffffffffffffffffffff16141561058a576040517f08c379a000000000000000000000000000000000000000000000000000000000815260040161058190610c66565b60405180910390fd5b80915050919050565b60008073ffffffffffffffffffffffffffffffffffffffff168273ffffffffffffffffffffffffffffffffffffffff161415610604576040517f08c379a00000000000000000000000000000000000000000000000000000000081526004016105fb90610cf8565b60405180910390fd5b600360008373ffffffffffffffffffffffffffffffffffffffff1673ffffffffffffffffffffffffffffffffffffffff168152602001908152602001600020549050919050565b600073ffffffffffffffffffffffffffffffffffffffff168273ffffffffffffffffffffffffffffffffffffffff1614156106bb576040517f08c379a00000000000000000000000000000000000000000000000000000000081526004016106b290610d8a565b60405180910390fd5b8273ffffffffffffffffffffffffffffffffffffffff166106db826104e1565b73ffffffffffffffffffffffffffffffffffffffff1614610731576040517f08c379a000000000000000000000000000000000000000000000000000000000815260040161072890610e1c565b60405180910390fd5b600360008473ffffffffffffffffffffffffffffffffffffffff1673ffffffffffffffffffffffffffffffffffffffff168152602001908152602001600020600081548092919061078190610e6b565b9190505550600360008373ffffffffffffffffffffffffffffffffffffffff1673ffffffffffffffffffffffffffffffffffffffff16815260200190815260200160002060008154809291906107d690610e95565b9190505550816002600083815260200190815260200160002060006101000a81548173ffffffffffffffffffffffffffffffffffffffff021916908373ffffffffffffffffffffffffffffffffffffffff160217905550808273ffffffffffffffffffffffffffffffffffffffff168473ffffffffffffffffffffffffffffffffffffffff167fddf252ad1be2c89b69c2b068fc378daa952ba7f163c4a11628f55a4df523b3ef60405160405180910390a4505050565b600081519050919050565b600082825260208201905092915050565b60005b838110156108c75780820151818401526020810190506108ac565b838111156108d6576000848401525b50505050565b6000601f19601f8301169050919050565b60006108f88261088d565b6109028185610898565b93506109128185602086016108a9565b61091b816108dc565b840191505092915050565b6000602082019050818103600083015261094081846108ed565b905092915050565b6000819050919050565b61095b81610948565b82525050565b60006020820190506109766000830184610952565b92915050565b600080fd5b600073ffffffffffffffffffffffffffffffffffffffff82169050919050565b60006109ac82610981565b9050919050565b6109bc816109a1565b81146109c757600080fd5b50565b6000813590506109d9816109b3565b92915050565b6109e881610948565b81146109f357600080fd5b50565b600081359050610a05816109df565b92915050565b600080600060608486031215610a2457610a2361097c565b5b6000610a32868287016109ca565b9350506020610a43868287016109ca565b9250506040610a54868287016109f6565b9150509250925092565b60008060408385031215610a7557610a7461097c565b5b6000610a83858286016109ca565b9250506020610a94858286016109f6565b9150509250929050565b600060208284031215610ab457610ab361097c565b5b6000610ac2848285016109f6565b91505092915050565b610ad4816109a1565b82525050565b6000602082019050610aef6000830184610acb565b92915050565b600060208284031215610b0b57610b0a61097c565b5b6000610b19848285016109ca565b91505092915050565b7f4e487b7100000000000000000000000000000000000000000000000000000000600052602260045260246000fd5b60006002820490506001821680610b6957607f821691505b60208210811415610b7d57610b7c610b22565b5b50919050565b600081519050610b92816109df565b92915050565b600060208284031215610bae57610bad61097c565b5b6000610bbc84828501610b83565b91505092915050565b7f4e487b7100000000000000000000000000000000000000000000000000000000600052603260045260246000fd5b7f4552433732313a207a65726f206164647265737320666f72207468697320746f60008201527f6b656e4964000000000000000000000000000000000000000000000000000000602082015250565b6000610c50602583610898565b9150610c5b82610bf4565b604082019050919050565b60006020820190508181036000830152610c7f81610c43565b9050919050565b7f4552433732313a2063616e2774207175657279207468652062616c616e63652060008201527f6f66207a65726f20616464726573730000000000000000000000000000000000602082015250565b6000610ce2602f83610898565b9150610ced82610c86565b604082019050919050565b60006020820190508181036000830152610d1181610cd5565b9050919050565b7f4572726f723a2043616e6e6f74207472616e7366657220746f20746865207a6560008201527f726f206164647265737300000000000000000000000000000000000000000000602082015250565b6000610d74602a83610898565b9150610d7f82610d18565b604082019050919050565b60006020820190508181036000830152610da381610d67565b9050919050565b7f4572726f723a2043616e6e6f74207472616e73666572206120746f6b656e206e60008201527f6f74206f776e656420627920796f752100000000000000000000000000000000602082015250565b6000610e06603083610898565b9150610e1182610daa565b604082019050919050565b60006020820190508181036000830152610e3581610df9565b9050919050565b7f4e487b7100000000000000000000000000000000000000000000000000000000600052601160045260246000fd5b6000610e7682610948565b91506000821415610e8a57610e89610e3c565b5b600182039050919050565b6000610ea082610948565b91507fffffffffffffffffffffffffffffffffffffffffffffffffffffffffffffffff821415610ed357610ed2610e3c565b5b60018201905091905056fea2646970667358221220374e7644586b35aab32da2230b786b605e13544a2db45cbb0465e6c4b13cb02e64736f6c634300080b0033",
  "immutableReferences": {},
  "source": "// SPDX-License-Identifier: MIT\r\npragma solidity >=0.4.22 <0.9.0;\r\n\r\nimport './ERC721Metadata.sol';\r\nimport './ERC721Enumerable.sol';\r\n\r\n// ERC721Enumerable already inherit from ERC721, no need for double inheritance\r\n// in new version of compiler such double inheritance is prohibited\r\ncontract ERC721Connector is ERC721Metadata, ERC721Enumerable {\r\n\r\n  constructor(string memory name, string memory symbol) ERC721Metadata(name, symbol) {\r\n\r\n  }\r\n}\r\n",
  "sourcePath": "C:\\Users\\coding-guy\\Documents\\blockchain\\nft-marketplace\\src\\contracts\\ERC721Connector.sol",
  "compiler": {
    "name": "solc",
    "version": "0.8.11+commit.d7f03943.Emscripten.clang"
  },
  "schemaVersion": "3.4.3",
  "updatedAt": "2022-02-08T10:01:32.084Z",
  "devdoc": {
    "kind": "dev",
    "methods": {},
    "version": 1
  },
  "userdoc": {
    "kind": "user",
    "methods": {},
    "version": 1
  }
}