{
  "contractName": "ERC721Enumerable",
  "abi": [
    {
      "anonymous": false,
      "inputs": [
        {
          "indexed": true,
          "internalType": "address",
          "name": "_owner",
          "type": "address"
        },
        {
          "indexed": true,
          "internalType": "address",
          "name": "_approved",
          "type": "address"
        },
        {
          "indexed": true,
          "internalType": "uint256",
          "name": "_tokenId",
          "type": "uint256"
        }
      ],
      "name": "Approval",
      "type": "event"
    },
    {
      "anonymous": false,
      "inputs": [
        {
          "indexed": true,
          "internalType": "address",
          "name": "_from",
          "type": "address"
        },
        {
          "indexed": true,
          "internalType": "address",
          "name": "_to",
          "type": "address"
        },
        {
          "indexed": true,
          "internalType": "uint256",
          "name": "_tokenId",
          "type": "uint256"
        }
      ],
      "name": "Transfer",
      "type": "event"
    },
    {
      "inputs": [
        {
          "internalType": "address",
          "name": "_to",
          "type": "address"
        },
        {
          "internalType": "uint256",
          "name": "tokenId",
          "type": "uint256"
        }
      ],
      "name": "approve",
      "outputs": [],
      "stateMutability": "nonpayable",
      "type": "function"
    },
    {
      "inputs": [
        {
          "internalType": "address",
          "name": "_owner",
          "type": "address"
        }
      ],
      "name": "balanceOf",
      "outputs": [
        {
          "internalType": "uint256",
          "name": "",
          "type": "uint256"
        }
      ],
      "stateMutability": "view",
      "type": "function"
    },
    {
      "inputs": [
        {
          "internalType": "uint256",
          "name": "_tokenId",
          "type": "uint256"
        }
      ],
      "name": "ownerOf",
      "outputs": [
        {
          "internalType": "address",
          "name": "",
          "type": "address"
        }
      ],
      "stateMutability": "view",
      "type": "function"
    },
    {
      "inputs": [
        {
          "internalType": "bytes4",
          "name": "interfaceId",
          "type": "bytes4"
        }
      ],
      "name": "supportsInterface",
      "outputs": [
        {
          "internalType": "bool",
          "name": "",
          "type": "bool"
        }
      ],
      "stateMutability": "view",
      "type": "function"
    },
    {
      "inputs": [
        {
          "internalType": "address",
          "name": "_from",
          "type": "address"
        },
        {
          "internalType": "address",
          "name": "_to",
          "type": "address"
        },
        {
          "internalType": "uint256",
          "name": "_tokenId",
          "type": "uint256"
        }
      ],
      "name": "transferFrom",
      "outputs": [],
      "stateMutability": "nonpayable",
      "type": "function"
    },
    {
      "inputs": [],
      "name": "totalSupply",
      "outputs": [
        {
          "internalType": "uint256",
          "name": "",
          "type": "uint256"
        }
      ],
      "stateMutability": "view",
      "type": "function"
    },
    {
      "inputs": [
        {
          "internalType": "uint256",
          "name": "index",
          "type": "uint256"
        }
      ],
      "name": "tokenByIndex",
      "outputs": [
        {
          "internalType": "uint256",
          "name": "",
          "type": "uint256"
        }
      ],
      "stateMutability": "view",
      "type": "function"
    },
    {
      "inputs": [
        {
          "internalType": "address",
          "name": "ownerAddress",
          "type": "address"
        },
        {
          "internalType": "uint256",
          "name": "index",
          "type": "uint256"
        }
      ],
      "name": "tokenOfOwnerByIndex",
      "outputs": [
        {
          "internalType": "uint256",
          "name": "",
          "type": "uint256"
        }
      ],
      "stateMutability": "view",
      "type": "function"
    }
  ],
  "bytecode": "0x608060405234801561001057600080fd5b506100407f01ffc9a7a5cef8baa21ed3c5c0d7e23accb804b619e9333b597f47a0d84076e261004560201b60201c565b6101bd565b63ffffffff60e01b817bffffffffffffffffffffffffffffffffffffffffffffffffffffffff191614156100ae576040517f08c379a00000000000000000000000000000000000000000000000000000000081526004016100a59061019d565b60405180910390fd5b6001600080837bffffffffffffffffffffffffffffffffffffffffffffffffffffffff19167bffffffffffffffffffffffffffffffffffffffffffffffffffffffff1916815260200190815260200160002060006101000a81548160ff02191690831515021790555050565b600082825260208201905092915050565b7f4572726f723a20696e76616c696420696e74657266616365207265717565737460008201527f2e00000000000000000000000000000000000000000000000000000000000000602082015250565b600061018760218361011a565b91506101928261012b565b604082019050919050565b600060208201905081810360008301526101b68161017a565b9050919050565b61116780620001cd6000396000f3fe608060405234801561001057600080fd5b50600436106100885760003560e01c80632f745c591161005b5780632f745c59146101135780634f6ccce7146101435780636352211e1461017357806370a08231146101a357610088565b806301ffc9a71461008d578063095ea7b3146100bd57806318160ddd146100d957806323b872dd146100f7575b600080fd5b6100a760048036038101906100a29190610a69565b6101d3565b6040516100b49190610ab1565b60405180910390f35b6100d760048036038101906100d29190610b60565b61023a565b005b6100e16103d6565b6040516100ee9190610baf565b60405180910390f35b610111600480360381019061010c9190610bca565b6103e3565b005b61012d60048036038101906101289190610b60565b610406565b60405161013a9190610baf565b60405180910390f35b61015d60048036038101906101589190610c1d565b6104f2565b60405161016a9190610baf565b60405180910390f35b61018d60048036038101906101889190610c1d565b610595565b60405161019a9190610c59565b60405180910390f35b6101bd60048036038101906101b89190610c74565b610647565b6040516101ca9190610baf565b60405180910390f35b6000806000837bffffffffffffffffffffffffffffffffffffffffffffffffffffffff19167bffffffffffffffffffffffffffffffffffffffffffffffffffffffff1916815260200190815260200160002060009054906101000a900460ff169050919050565b600061024582610595565b90503373ffffffffffffffffffffffffffffffffffffffff168173ffffffffffffffffffffffffffffffffffffffff16146102b5576040517f08c379a00000000000000000000000000000000000000000000000000000000081526004016102ac90610d24565b60405180910390fd5b8273ffffffffffffffffffffffffffffffffffffffff168173ffffffffffffffffffffffffffffffffffffffff161415610324576040517f08c379a000000000000000000000000000000000000000000000000000000000815260040161031b90610db6565b60405180910390fd5b826003600084815260200190815260200160002060006101000a81548173ffffffffffffffffffffffffffffffffffffffff021916908373ffffffffffffffffffffffffffffffffffffffff160217905550818373ffffffffffffffffffffffffffffffffffffffff163373ffffffffffffffffffffffffffffffffffffffff167f8c5be1e5ebec7d5bd14f71427d1e84f3dd0314c0f7b2291e5b200ac8c7c3b92560405160405180910390a4505050565b6000600480549050905090565b6103ed33826106ff565b6103f657600080fd5b610401838383610758565b505050565b60003073ffffffffffffffffffffffffffffffffffffffff166370a08231846040518263ffffffff1660e01b81526004016104419190610c59565b602060405180830381865afa15801561045e573d6000803e3d6000fd5b505050506040513d601f19601f820116820180604052508101906104829190610deb565b82111561048e57600080fd5b600660008473ffffffffffffffffffffffffffffffffffffffff1673ffffffffffffffffffffffffffffffffffffffff16815260200190815260200160002082815481106104df576104de610e18565b5b9060005260206000200154905092915050565b60003073ffffffffffffffffffffffffffffffffffffffff166318160ddd6040518163ffffffff1660e01b8152600401602060405180830381865afa15801561053f573d6000803e3d6000fd5b505050506040513d601f19601f820116820180604052508101906105639190610deb565b82111561056f57600080fd5b6004828154811061058357610582610e18565b5b90600052602060002001549050919050565b6000806001600084815260200190815260200160002060009054906101000a900473ffffffffffffffffffffffffffffffffffffffff169050600073ffffffffffffffffffffffffffffffffffffffff168173ffffffffffffffffffffffffffffffffffffffff16141561063e576040517f08c379a000000000000000000000000000000000000000000000000000000000815260040161063590610eb9565b60405180910390fd5b80915050919050565b60008073ffffffffffffffffffffffffffffffffffffffff168273ffffffffffffffffffffffffffffffffffffffff1614156106b8576040517f08c379a00000000000000000000000000000000000000000000000000000000081526004016106af90610f4b565b60405180910390fd5b600260008373ffffffffffffffffffffffffffffffffffffffff1673ffffffffffffffffffffffffffffffffffffffff168152602001908152602001600020549050919050565b600061070a8261099a565b61071357600080fd5b600061071e83610595565b90508073ffffffffffffffffffffffffffffffffffffffff168473ffffffffffffffffffffffffffffffffffffffff161491505092915050565b600073ffffffffffffffffffffffffffffffffffffffff168273ffffffffffffffffffffffffffffffffffffffff1614156107c8576040517f08c379a00000000000000000000000000000000000000000000000000000000081526004016107bf90610fdd565b60405180910390fd5b8273ffffffffffffffffffffffffffffffffffffffff166107e882610595565b73ffffffffffffffffffffffffffffffffffffffff161461083e576040517f08c379a00000000000000000000000000000000000000000000000000000000081526004016108359061106f565b60405180910390fd5b600260008473ffffffffffffffffffffffffffffffffffffffff1673ffffffffffffffffffffffffffffffffffffffff168152602001908152602001600020600081548092919061088e906110be565b9190505550600260008373ffffffffffffffffffffffffffffffffffffffff1673ffffffffffffffffffffffffffffffffffffffff16815260200190815260200160002060008154809291906108e3906110e8565b9190505550816001600083815260200190815260200160002060006101000a81548173ffffffffffffffffffffffffffffffffffffffff021916908373ffffffffffffffffffffffffffffffffffffffff160217905550808273ffffffffffffffffffffffffffffffffffffffff168473ffffffffffffffffffffffffffffffffffffffff167fddf252ad1be2c89b69c2b068fc378daa952ba7f163c4a11628f55a4df523b3ef60405160405180910390a4505050565b6000806001600084815260200190815260200160002060009054906101000a900473ffffffffffffffffffffffffffffffffffffffff169050600073ffffffffffffffffffffffffffffffffffffffff168173ffffffffffffffffffffffffffffffffffffffff161415915050919050565b600080fd5b60007fffffffff0000000000000000000000000000000000000000000000000000000082169050919050565b610a4681610a11565b8114610a5157600080fd5b50565b600081359050610a6381610a3d565b92915050565b600060208284031215610a7f57610a7e610a0c565b5b6000610a8d84828501610a54565b91505092915050565b60008115159050919050565b610aab81610a96565b82525050565b6000602082019050610ac66000830184610aa2565b92915050565b600073ffffffffffffffffffffffffffffffffffffffff82169050919050565b6000610af782610acc565b9050919050565b610b0781610aec565b8114610b1257600080fd5b50565b600081359050610b2481610afe565b92915050565b6000819050919050565b610b3d81610b2a565b8114610b4857600080fd5b50565b600081359050610b5a81610b34565b92915050565b60008060408385031215610b7757610b76610a0c565b5b6000610b8585828601610b15565b9250506020610b9685828601610b4b565b9150509250929050565b610ba981610b2a565b82525050565b6000602082019050610bc46000830184610ba0565b92915050565b600080600060608486031215610be357610be2610a0c565b5b6000610bf186828701610b15565b9350506020610c0286828701610b15565b9250506040610c1386828701610b4b565b9150509250925092565b600060208284031215610c3357610c32610a0c565b5b6000610c4184828501610b4b565b91505092915050565b610c5381610aec565b82525050565b6000602082019050610c6e6000830184610c4a565b92915050565b600060208284031215610c8a57610c89610a0c565b5b6000610c9884828501610b15565b91505092915050565b600082825260208201905092915050565b7f4572726f723a2063757272656e742063616c6c657220646f6573206e6f74206f60008201527f776e2074686520746f6b656e0000000000000000000000000000000000000000602082015250565b6000610d0e602c83610ca1565b9150610d1982610cb2565b604082019050919050565b60006020820190508181036000830152610d3d81610d01565b9050919050565b7f4572726f723a2063616c6c65722063616e6e6f742073656e642074686520746f60008201527f6b656e20746f2068696d73656c66000000000000000000000000000000000000602082015250565b6000610da0602e83610ca1565b9150610dab82610d44565b604082019050919050565b60006020820190508181036000830152610dcf81610d93565b9050919050565b600081519050610de581610b34565b92915050565b600060208284031215610e0157610e00610a0c565b5b6000610e0f84828501610dd6565b91505092915050565b7f4e487b7100000000000000000000000000000000000000000000000000000000600052603260045260246000fd5b7f4552433732313a207a65726f206164647265737320666f72207468697320746f60008201527f6b656e4964000000000000000000000000000000000000000000000000000000602082015250565b6000610ea3602583610ca1565b9150610eae82610e47565b604082019050919050565b60006020820190508181036000830152610ed281610e96565b9050919050565b7f4552433732313a2063616e2774207175657279207468652062616c616e63652060008201527f6f66207a65726f20616464726573730000000000000000000000000000000000602082015250565b6000610f35602f83610ca1565b9150610f4082610ed9565b604082019050919050565b60006020820190508181036000830152610f6481610f28565b9050919050565b7f4572726f723a2043616e6e6f74207472616e7366657220746f20746865207a6560008201527f726f206164647265737300000000000000000000000000000000000000000000602082015250565b6000610fc7602a83610ca1565b9150610fd282610f6b565b604082019050919050565b60006020820190508181036000830152610ff681610fba565b9050919050565b7f4572726f723a2043616e6e6f74207472616e73666572206120746f6b656e206e60008201527f6f74206f776e656420627920796f752100000000000000000000000000000000602082015250565b6000611059603083610ca1565b915061106482610ffd565b604082019050919050565b600060208201905081810360008301526110888161104c565b9050919050565b7f4e487b7100000000000000000000000000000000000000000000000000000000600052601160045260246000fd5b60006110c982610b2a565b915060008214156110dd576110dc61108f565b5b600182039050919050565b60006110f382610b2a565b91507fffffffffffffffffffffffffffffffffffffffffffffffffffffffffffffffff8214156111265761112561108f565b5b60018201905091905056fea2646970667358221220fcdb88817a16863a17692500ae524aa8853dcf95c974cd1befcada45e211b4e264736f6c634300080b0033",
  "immutableReferences": {},
  "source": "// SPDX-License-Identifier: MIT\r\npragma solidity >=0.4.22 <0.9.0;\r\n\r\nimport './ERC721.sol';\r\nimport './interfaces/IERC721Enumerable.sol';\r\n\r\ncontract ERC721Enumerable is ERC721, IERC721Enumerable {\r\n  uint256[] private _allTokens;\r\n\r\n  // tokenId to position in _allTokens array\r\n  // better name: whereIsEachTokenStoredInAllTokensArray\r\n  mapping(uint256 => uint256) private _allTokensIndex;\r\n\r\n  // owner to list of all tokenIds owned\r\n  // no need to init empty array for each entry?\r\n  // better name: whoOwnWhatTokens\r\n  mapping(address => uint256[]) private _ownedTokens;\r\n\r\n  // tokenId to index of the owner tokens list\r\n  // more explainitory name: whichTokenRefersToWhatIndexInOwnedTokens\r\n  mapping(uint256 => uint256) private _ownedTokensIndex;\r\n\r\n  // returns the total supply from the _allTokens array\r\n  function totalSupply() external override view returns (uint256) {\r\n    return _allTokens.length;\r\n  }\r\n\r\n  // better name: getTokenByIndex()\r\n  function tokenByIndex(uint256 index) public override view returns (uint256) {\r\n    // guard clause to make sure index is not out of bound\r\n    // if calling totalSupply in the require statement it causes an error, says it's not yet visible?\r\n    // but calling it with this.totalSupply() works\r\n    require(index <= this.totalSupply());\r\n    return _allTokens[index];\r\n  }\r\n\r\n  //\r\n  function tokenOfOwnerByIndex(address ownerAddress, uint256 index)\r\n    public\r\n    override\r\n    view\r\n    returns (uint256)\r\n  {\r\n    // I reckon this require line will break because balanceOf() doesn't return a number but an object\r\n    // needs to use .then() to get the balanceInstance but not sure how to do it currently\r\n    require(index <= this.balanceOf(ownerAddress));\r\n    return _ownedTokens[ownerAddress][index];\r\n  }\r\n\r\n  function _mint(address to, uint256 tokenId) internal override(ERC721) {\r\n    // call_mint() from parent class, which is ERC721 in this case\r\n    super._mint(to, tokenId);\r\n    // add tokens to our totalSupply\r\n    _addTokensToAllTokenEnumeration(tokenId);\r\n\r\n    // add tokens to the owner\r\n    _addTokensToOwnerEnumeration(to, tokenId);\r\n  }\r\n\r\n  function _addTokensToAllTokenEnumeration(uint256 tokenId) private {\r\n    _allTokensIndex[tokenId] = _allTokens.length;\r\n    _allTokens.push(tokenId);\r\n  }\r\n\r\n  function _addTokensToOwnerEnumeration(address to, uint256 tokenId) private {\r\n    // add address and tokenId to the _ownedTokens\r\n    _ownedTokens[to].push(tokenId);\r\n    // ownedTokensIndex tokenId set to address of the ownedToken position\r\n    _ownedTokensIndex[tokenId] = _ownedTokens[to].length;\r\n  }\r\n}\r\n",
  "sourcePath": "C:\\Users\\coding-guy\\Documents\\blockchain\\nft-marketplace\\src\\contracts\\ERC721Enumerable.sol",
  "compiler": {
    "name": "solc",
    "version": "0.8.11+commit.d7f03943.Emscripten.clang"
  },
  "schemaVersion": "3.4.3",
  "updatedAt": "2022-02-09T04:57:24.466Z",
  "devdoc": {
    "kind": "dev",
    "methods": {},
    "version": 1
  },
  "userdoc": {
    "kind": "user",
    "methods": {},
    "version": 1
  }
}