{
  "contractName": "ERC721",
  "abi": [
    {
      "anonymous": false,
      "inputs": [
        {
          "indexed": true,
          "internalType": "address",
          "name": "from",
          "type": "address"
        },
        {
          "indexed": true,
          "internalType": "address",
          "name": "to",
          "type": "address"
        },
        {
          "indexed": true,
          "internalType": "uint256",
          "name": "tokenId",
          "type": "uint256"
        }
      ],
      "name": "Transfer",
      "type": "event"
    },
    {
      "inputs": [
        {
          "internalType": "address",
          "name": "_owner",
          "type": "address"
        }
      ],
      "name": "balanceOf",
      "outputs": [
        {
          "internalType": "uint256",
          "name": "",
          "type": "uint256"
        }
      ],
      "stateMutability": "view",
      "type": "function"
    },
    {
      "inputs": [
        {
          "internalType": "uint256",
          "name": "_tokenId",
          "type": "uint256"
        }
      ],
      "name": "ownerOf",
      "outputs": [
        {
          "internalType": "address",
          "name": "",
          "type": "address"
        }
      ],
      "stateMutability": "view",
      "type": "function"
    }
  ],
  "bytecode": "0x608060405234801561001057600080fd5b506104b6806100206000396000f3fe608060405234801561001057600080fd5b50600436106100365760003560e01c80636352211e1461003b57806370a082311461006b575b600080fd5b6100556004803603810190610050919061023f565b61009b565b60405161006291906102ad565b60405180910390f35b610085600480360381019061008091906102f4565b61014c565b6040516100929190610330565b60405180910390f35b60008060008084815260200190815260200160002060009054906101000a900473ffffffffffffffffffffffffffffffffffffffff169050600073ffffffffffffffffffffffffffffffffffffffff168173ffffffffffffffffffffffffffffffffffffffff161415610143576040517f08c379a000000000000000000000000000000000000000000000000000000000815260040161013a906103ce565b60405180910390fd5b80915050919050565b60008073ffffffffffffffffffffffffffffffffffffffff168273ffffffffffffffffffffffffffffffffffffffff1614156101bd576040517f08c379a00000000000000000000000000000000000000000000000000000000081526004016101b490610460565b60405180910390fd5b600160008373ffffffffffffffffffffffffffffffffffffffff1673ffffffffffffffffffffffffffffffffffffffff168152602001908152602001600020549050919050565b600080fd5b6000819050919050565b61021c81610209565b811461022757600080fd5b50565b60008135905061023981610213565b92915050565b60006020828403121561025557610254610204565b5b60006102638482850161022a565b91505092915050565b600073ffffffffffffffffffffffffffffffffffffffff82169050919050565b60006102978261026c565b9050919050565b6102a78161028c565b82525050565b60006020820190506102c2600083018461029e565b92915050565b6102d18161028c565b81146102dc57600080fd5b50565b6000813590506102ee816102c8565b92915050565b60006020828403121561030a57610309610204565b5b6000610318848285016102df565b91505092915050565b61032a81610209565b82525050565b60006020820190506103456000830184610321565b92915050565b600082825260208201905092915050565b7f4552433732313a207a65726f206164647265737320666f72207468697320746f60008201527f6b656e4964000000000000000000000000000000000000000000000000000000602082015250565b60006103b860258361034b565b91506103c38261035c565b604082019050919050565b600060208201905081810360008301526103e7816103ab565b9050919050565b7f4552433732313a2063616e2774207175657279207468652062616c616e63652060008201527f6f66207a65726f20616464726573730000000000000000000000000000000000602082015250565b600061044a602f8361034b565b9150610455826103ee565b604082019050919050565b600060208201905081810360008301526104798161043d565b905091905056fea2646970667358221220f69c65c09fae12dfb0b08bf0e2f933e9e0eb2ca109741827e3d07fcfbbda0ce464736f6c634300080b0033",
  "immutableReferences": {},
  "source": "// SPDX-License-Identifier: MIT\r\npragma solidity >=0.4.22 <0.9.0;\r\n\r\n/*\r\n  What does a mint function do?\r\n  - keep track of the address\r\n  - keep track of the tokenIds\r\n  - who has which NFT, which address is mapped to which tokenId\r\n  - how many NFT that person has\r\n  - create en event that emit a transfer log\r\n    - contract address\r\n    - where it is being minted to \r\n    - tokenId\r\n  \r\n   */\r\n\r\ncontract ERC721 {\r\n  event Transfer(\r\n    address indexed from,\r\n    address indexed to,\r\n    uint256 indexed tokenId\r\n  );\r\n\r\n  // which tokenId belongs to which owner\r\n  mapping(uint256 => address) private _tokenOwner;\r\n  // how many tokens each owner has\r\n  mapping(address => uint256) private _ownedTokenCount;\r\n\r\n  function _exist(uint256 tokenId) internal view returns (bool) {\r\n    // setting the address of NFT owner, check the mapping\r\n    address owner = _tokenOwner[tokenId];\r\n    // returns true if that tokenId is mapped to an owner (address isn't zero)\r\n    return owner != address(0);\r\n  }\r\n\r\n  function _mint(address to, uint256 tokenId) internal {\r\n    // requires the address isn't zero\r\n    require(to != address(0), 'ERC721: minting to the zero address.');\r\n    // requires the token has not already been minted\r\n    require(!_exist(tokenId), 'ERC721: token already existed.');\r\n    // set the _tokenOwner of the tokenId to the address argument to\r\n    _tokenOwner[tokenId] = to;\r\n    // increase the count of that owner\r\n    _ownedTokenCount[to]++;\r\n    // emit the event\r\n    emit Transfer(address(0), to, tokenId);\r\n  }\r\n\r\n  function balanceOf(address _owner) public view returns (uint256){\r\n    require(_owner != address(0), \"ERC721: can't query the balance of zero address\");\r\n    return _ownedTokenCount[_owner];\r\n  }\r\n\r\n  function ownerOf(uint256 _tokenId) external view returns (address){\r\n    address owner = _tokenOwner[_tokenId];\r\n    require(owner != address(0), \"ERC721: zero address for this tokenId\");\r\n    return owner;\r\n  }\r\n}\r\n",
  "sourcePath": "C:\\Users\\coding-guy\\Documents\\blockchain\\nft-marketplace\\src\\contracts\\ERC721.sol",
  "compiler": {
    "name": "solc",
    "version": "0.8.11+commit.d7f03943.Emscripten.clang"
  },
  "schemaVersion": "3.4.3",
  "updatedAt": "2022-02-06T07:42:39.530Z",
  "devdoc": {
    "kind": "dev",
    "methods": {},
    "version": 1
  },
  "userdoc": {
    "kind": "user",
    "methods": {},
    "version": 1
  }
}