{
  "contractName": "KryptoBird",
  "abi": [
    {
      "inputs": [],
      "stateMutability": "nonpayable",
      "type": "constructor"
    },
    {
      "anonymous": false,
      "inputs": [
        {
          "indexed": true,
          "internalType": "address",
          "name": "from",
          "type": "address"
        },
        {
          "indexed": true,
          "internalType": "address",
          "name": "to",
          "type": "address"
        },
        {
          "indexed": true,
          "internalType": "uint256",
          "name": "tokenId",
          "type": "uint256"
        }
      ],
      "name": "Transfer",
      "type": "event"
    },
    {
      "inputs": [
        {
          "internalType": "address",
          "name": "_owner",
          "type": "address"
        }
      ],
      "name": "balanceOf",
      "outputs": [
        {
          "internalType": "uint256",
          "name": "",
          "type": "uint256"
        }
      ],
      "stateMutability": "view",
      "type": "function",
      "constant": true
    },
    {
      "inputs": [],
      "name": "getName",
      "outputs": [
        {
          "internalType": "string",
          "name": "",
          "type": "string"
        }
      ],
      "stateMutability": "view",
      "type": "function",
      "constant": true
    },
    {
      "inputs": [],
      "name": "getSymbol",
      "outputs": [
        {
          "internalType": "string",
          "name": "",
          "type": "string"
        }
      ],
      "stateMutability": "view",
      "type": "function",
      "constant": true
    },
    {
      "inputs": [
        {
          "internalType": "uint256",
          "name": "",
          "type": "uint256"
        }
      ],
      "name": "kryptoBirdz",
      "outputs": [
        {
          "internalType": "string",
          "name": "",
          "type": "string"
        }
      ],
      "stateMutability": "view",
      "type": "function",
      "constant": true
    },
    {
      "inputs": [
        {
          "internalType": "uint256",
          "name": "_tokenId",
          "type": "uint256"
        }
      ],
      "name": "ownerOf",
      "outputs": [
        {
          "internalType": "address",
          "name": "",
          "type": "address"
        }
      ],
      "stateMutability": "view",
      "type": "function",
      "constant": true
    },
    {
      "inputs": [
        {
          "internalType": "uint256",
          "name": "index",
          "type": "uint256"
        }
      ],
      "name": "tokenByIndex",
      "outputs": [
        {
          "internalType": "uint256",
          "name": "",
          "type": "uint256"
        }
      ],
      "stateMutability": "view",
      "type": "function",
      "constant": true
    },
    {
      "inputs": [
        {
          "internalType": "address",
          "name": "ownerAddress",
          "type": "address"
        },
        {
          "internalType": "uint256",
          "name": "index",
          "type": "uint256"
        }
      ],
      "name": "tokenOfOwnerByIndex",
      "outputs": [
        {
          "internalType": "uint256",
          "name": "",
          "type": "uint256"
        }
      ],
      "stateMutability": "view",
      "type": "function",
      "constant": true
    },
    {
      "inputs": [],
      "name": "totalSupply",
      "outputs": [
        {
          "internalType": "uint256",
          "name": "",
          "type": "uint256"
        }
      ],
      "stateMutability": "view",
      "type": "function",
      "constant": true
    },
    {
      "inputs": [
        {
          "internalType": "string",
          "name": "_kryptoBird",
          "type": "string"
        }
      ],
      "name": "mint",
      "outputs": [],
      "stateMutability": "nonpayable",
      "type": "function"
    }
  ],
  "bytecode": "0x60806040523480156200001157600080fd5b506040518060400160405280600a81526020017f4b727970746f42697264000000000000000000000000000000000000000000008152506040518060400160405280600681526020017f4b424952445a00000000000000000000000000000000000000000000000000008152508181816000908051906020019062000098929190620000bc565b508060019080519060200190620000b1929190620000bc565b5050505050620001d1565b828054620000ca906200019b565b90600052602060002090601f016020900481019282620000ee57600085556200013a565b82601f106200010957805160ff19168380011785556200013a565b828001600101855582156200013a579182015b82811115620001395782518255916020019190600101906200011c565b5b5090506200014991906200014d565b5090565b5b80821115620001685760008160009055506001016200014e565b5090565b7f4e487b7100000000000000000000000000000000000000000000000000000000600052602260045260246000fd5b60006002820490506001821680620001b457607f821691505b60208210811415620001cb57620001ca6200016c565b5b50919050565b61146480620001e16000396000f3fe608060405234801561001057600080fd5b50600436106100935760003560e01c80634f6ccce7116100665780634f6ccce7146101225780636352211e1461015257806370a082311461018257806393ab6e56146101b2578063d85d3d27146101e257610093565b8063150704011461009857806317d7de7c146100b657806318160ddd146100d45780632f745c59146100f2575b600080fd5b6100a06101fe565b6040516100ad9190610c73565b60405180910390f35b6100be610290565b6040516100cb9190610c73565b60405180910390f35b6100dc610322565b6040516100e99190610cae565b60405180910390f35b61010c60048036038101906101079190610d67565b61032f565b6040516101199190610cae565b60405180910390f35b61013c60048036038101906101379190610da7565b61041b565b6040516101499190610cae565b60405180910390f35b61016c60048036038101906101679190610da7565b6104be565b6040516101799190610de3565b60405180910390f35b61019c60048036038101906101979190610dfe565b610570565b6040516101a99190610cae565b60405180910390f35b6101cc60048036038101906101c79190610da7565b610628565b6040516101d99190610c73565b60405180910390f35b6101fc60048036038101906101f79190610f60565b6106d4565b005b60606001805461020d90610fd8565b80601f016020809104026020016040519081016040528092919081815260200182805461023990610fd8565b80156102865780601f1061025b57610100808354040283529160200191610286565b820191906000526020600020905b81548152906001019060200180831161026957829003601f168201915b5050505050905090565b60606000805461029f90610fd8565b80601f01602080910402602001604051908101604052809291908181526020018280546102cb90610fd8565b80156103185780601f106102ed57610100808354040283529160200191610318565b820191906000526020600020905b8154815290600101906020018083116102fb57829003601f168201915b5050505050905090565b6000600480549050905090565b60003073ffffffffffffffffffffffffffffffffffffffff166370a08231846040518263ffffffff1660e01b815260040161036a9190610de3565b602060405180830381865afa158015610387573d6000803e3d6000fd5b505050506040513d601f19601f820116820180604052508101906103ab919061101f565b8211156103b757600080fd5b600660008473ffffffffffffffffffffffffffffffffffffffff1673ffffffffffffffffffffffffffffffffffffffff16815260200190815260200160002082815481106104085761040761104c565b5b9060005260206000200154905092915050565b60003073ffffffffffffffffffffffffffffffffffffffff166318160ddd6040518163ffffffff1660e01b8152600401602060405180830381865afa158015610468573d6000803e3d6000fd5b505050506040513d601f19601f8201168201806040525081019061048c919061101f565b82111561049857600080fd5b600482815481106104ac576104ab61104c565b5b90600052602060002001549050919050565b6000806002600084815260200190815260200160002060009054906101000a900473ffffffffffffffffffffffffffffffffffffffff169050600073ffffffffffffffffffffffffffffffffffffffff168173ffffffffffffffffffffffffffffffffffffffff161415610567576040517f08c379a000000000000000000000000000000000000000000000000000000000815260040161055e906110ed565b60405180910390fd5b80915050919050565b60008073ffffffffffffffffffffffffffffffffffffffff168273ffffffffffffffffffffffffffffffffffffffff1614156105e1576040517f08c379a00000000000000000000000000000000000000000000000000000000081526004016105d89061117f565b60405180910390fd5b600360008373ffffffffffffffffffffffffffffffffffffffff1673ffffffffffffffffffffffffffffffffffffffff168152602001908152602001600020549050919050565b6008818154811061063857600080fd5b90600052602060002001600091509050805461065390610fd8565b80601f016020809104026020016040519081016040528092919081815260200182805461067f90610fd8565b80156106cc5780601f106106a1576101008083540402835291602001916106cc565b820191906000526020600020905b8154815290600101906020018083116106af57829003601f168201915b505050505081565b6009816040516106e491906111db565b908152602001604051809103902060009054906101000a900460ff1615610740576040517f08c379a000000000000000000000000000000000000000000000000000000000815260040161073790611264565b60405180910390fd5b60088190806001815401808255809150506001900390600052602060002001600090919091909150908051906020019061077b929190610b37565b506000600160088054905061079091906112b3565b905061079c33826107d7565b60016009836040516107ae91906111db565b908152602001604051809103902060006101000a81548160ff0219169083151502179055505050565b6107e182826107f8565b6107ea816109b8565b6107f48282610a01565b5050565b600073ffffffffffffffffffffffffffffffffffffffff168273ffffffffffffffffffffffffffffffffffffffff161415610868576040517f08c379a000000000000000000000000000000000000000000000000000000000815260040161085f90611359565b60405180910390fd5b61087181610ac5565b156108b1576040517f08c379a00000000000000000000000000000000000000000000000000000000081526004016108a8906113c5565b60405180910390fd5b816002600083815260200190815260200160002060006101000a81548173ffffffffffffffffffffffffffffffffffffffff021916908373ffffffffffffffffffffffffffffffffffffffff160217905550600360008373ffffffffffffffffffffffffffffffffffffffff1673ffffffffffffffffffffffffffffffffffffffff1681526020019081526020016000206000815480929190610953906113e5565b9190505550808273ffffffffffffffffffffffffffffffffffffffff16600073ffffffffffffffffffffffffffffffffffffffff167fddf252ad1be2c89b69c2b068fc378daa952ba7f163c4a11628f55a4df523b3ef60405160405180910390a45050565b6004805490506005600083815260200190815260200160002081905550600481908060018154018082558091505060019003906000526020600020016000909190919091505550565b600660008373ffffffffffffffffffffffffffffffffffffffff1673ffffffffffffffffffffffffffffffffffffffff168152602001908152602001600020819080600181540180825580915050600190039060005260206000200160009091909190915055600660008373ffffffffffffffffffffffffffffffffffffffff1673ffffffffffffffffffffffffffffffffffffffff1681526020019081526020016000208054905060076000838152602001908152602001600020819055505050565b6000806002600084815260200190815260200160002060009054906101000a900473ffffffffffffffffffffffffffffffffffffffff169050600073ffffffffffffffffffffffffffffffffffffffff168173ffffffffffffffffffffffffffffffffffffffff161415915050919050565b828054610b4390610fd8565b90600052602060002090601f016020900481019282610b655760008555610bac565b82601f10610b7e57805160ff1916838001178555610bac565b82800160010185558215610bac579182015b82811115610bab578251825591602001919060010190610b90565b5b509050610bb99190610bbd565b5090565b5b80821115610bd6576000816000905550600101610bbe565b5090565b600081519050919050565b600082825260208201905092915050565b60005b83811015610c14578082015181840152602081019050610bf9565b83811115610c23576000848401525b50505050565b6000601f19601f8301169050919050565b6000610c4582610bda565b610c4f8185610be5565b9350610c5f818560208601610bf6565b610c6881610c29565b840191505092915050565b60006020820190508181036000830152610c8d8184610c3a565b905092915050565b6000819050919050565b610ca881610c95565b82525050565b6000602082019050610cc36000830184610c9f565b92915050565b6000604051905090565b600080fd5b600080fd5b600073ffffffffffffffffffffffffffffffffffffffff82169050919050565b6000610d0882610cdd565b9050919050565b610d1881610cfd565b8114610d2357600080fd5b50565b600081359050610d3581610d0f565b92915050565b610d4481610c95565b8114610d4f57600080fd5b50565b600081359050610d6181610d3b565b92915050565b60008060408385031215610d7e57610d7d610cd3565b5b6000610d8c85828601610d26565b9250506020610d9d85828601610d52565b9150509250929050565b600060208284031215610dbd57610dbc610cd3565b5b6000610dcb84828501610d52565b91505092915050565b610ddd81610cfd565b82525050565b6000602082019050610df86000830184610dd4565b92915050565b600060208284031215610e1457610e13610cd3565b5b6000610e2284828501610d26565b91505092915050565b600080fd5b600080fd5b7f4e487b7100000000000000000000000000000000000000000000000000000000600052604160045260246000fd5b610e6d82610c29565b810181811067ffffffffffffffff82111715610e8c57610e8b610e35565b5b80604052505050565b6000610e9f610cc9565b9050610eab8282610e64565b919050565b600067ffffffffffffffff821115610ecb57610eca610e35565b5b610ed482610c29565b9050602081019050919050565b82818337600083830152505050565b6000610f03610efe84610eb0565b610e95565b905082815260208101848484011115610f1f57610f1e610e30565b5b610f2a848285610ee1565b509392505050565b600082601f830112610f4757610f46610e2b565b5b8135610f57848260208601610ef0565b91505092915050565b600060208284031215610f7657610f75610cd3565b5b600082013567ffffffffffffffff811115610f9457610f93610cd8565b5b610fa084828501610f32565b91505092915050565b7f4e487b7100000000000000000000000000000000000000000000000000000000600052602260045260246000fd5b60006002820490506001821680610ff057607f821691505b6020821081141561100457611003610fa9565b5b50919050565b60008151905061101981610d3b565b92915050565b60006020828403121561103557611034610cd3565b5b60006110438482850161100a565b91505092915050565b7f4e487b7100000000000000000000000000000000000000000000000000000000600052603260045260246000fd5b7f4552433732313a207a65726f206164647265737320666f72207468697320746f60008201527f6b656e4964000000000000000000000000000000000000000000000000000000602082015250565b60006110d7602583610be5565b91506110e28261107b565b604082019050919050565b60006020820190508181036000830152611106816110ca565b9050919050565b7f4552433732313a2063616e2774207175657279207468652062616c616e63652060008201527f6f66207a65726f20616464726573730000000000000000000000000000000000602082015250565b6000611169602f83610be5565b91506111748261110d565b604082019050919050565b600060208201905081810360008301526111988161115c565b9050919050565b600081905092915050565b60006111b582610bda565b6111bf818561119f565b93506111cf818560208601610bf6565b80840191505092915050565b60006111e782846111aa565b915081905092915050565b7f4572726f72202d206b727970746f4269726420616c726561647920657869737460008201527f732e000000000000000000000000000000000000000000000000000000000000602082015250565b600061124e602283610be5565b9150611259826111f2565b604082019050919050565b6000602082019050818103600083015261127d81611241565b9050919050565b7f4e487b7100000000000000000000000000000000000000000000000000000000600052601160045260246000fd5b60006112be82610c95565b91506112c983610c95565b9250828210156112dc576112db611284565b5b828203905092915050565b7f4552433732313a206d696e74696e6720746f20746865207a65726f206164647260008201527f6573732e00000000000000000000000000000000000000000000000000000000602082015250565b6000611343602483610be5565b915061134e826112e7565b604082019050919050565b6000602082019050818103600083015261137281611336565b9050919050565b7f4552433732313a20746f6b656e20616c726561647920657869737465642e0000600082015250565b60006113af601e83610be5565b91506113ba82611379565b602082019050919050565b600060208201905081810360008301526113de816113a2565b9050919050565b60006113f082610c95565b91507fffffffffffffffffffffffffffffffffffffffffffffffffffffffffffffffff82141561142357611422611284565b5b60018201905091905056fea264697066735822122085bf861b35ecc9fc98a38500f0ef4bb371e86df39d6c911541ee96397c3547c564736f6c634300080b0033",
  "immutableReferences": {},
  "source": "// SPDX-License-Identifier: MIT\r\n\r\npragma solidity >=0.4.22 <0.9.0;\r\n\r\nimport './ERC721Connector.sol';\r\n\r\ncontract KryptoBird is ERC721Connector {\r\n\r\n  // array to store NFTs\r\n  string[] public kryptoBirdz;\r\n  // if a fileName of a _kyrptoBird already exists\r\n  mapping(string => bool) _kyrptoBirdExists;\r\n\r\n  function mint(string memory _kryptoBird) public {\r\n    // only mint if the _kryptoBird doesn't exist\r\n    require(!_kyrptoBirdExists[_kryptoBird], 'Error - kryptoBird already exists.');\r\n    // push the _kryptoBird instance into kryptoBirdz array\r\n    kryptoBirdz.push(_kryptoBird);\r\n    // generate the id form the length of kryptoBirdz array\r\n    uint _id = kryptoBirdz.length - 1;\r\n    // call the _mint() defined in ERC721.sol, to=msg.sender, tokenId=_id\r\n    _mint(msg.sender, _id);\r\n    // this instance of kyrptoBird already exists\r\n    _kyrptoBirdExists[_kryptoBird] = true;\r\n\r\n  }\r\n\r\n  constructor() ERC721Connector('KryptoBird', 'KBIRDZ') {}\r\n}\r\n",
  "sourcePath": "C:\\Users\\coding-guy\\Documents\\blockchain\\nft-marketplace\\src\\contracts\\KryptoBirdz.sol",
  "compiler": {
    "name": "solc",
    "version": "0.8.11+commit.d7f03943.Emscripten.clang"
  },
  "schemaVersion": "3.4.3",
  "updatedAt": "2022-02-08T09:08:50.336Z",
  "networkType": "ethereum",
  "devdoc": {
    "kind": "dev",
    "methods": {},
    "version": 1
  },
  "userdoc": {
    "kind": "user",
    "methods": {},
    "version": 1
  }
}