{
  "contractName": "KryptoBird",
  "abi": [
    {
      "inputs": [],
      "stateMutability": "nonpayable",
      "type": "constructor"
    },
    {
      "anonymous": false,
      "inputs": [
        {
          "indexed": true,
          "internalType": "address",
          "name": "from",
          "type": "address"
        },
        {
          "indexed": true,
          "internalType": "address",
          "name": "to",
          "type": "address"
        },
        {
          "indexed": true,
          "internalType": "uint256",
          "name": "tokenId",
          "type": "uint256"
        }
      ],
      "name": "Transfer",
      "type": "event"
    },
    {
      "inputs": [
        {
          "internalType": "address",
          "name": "_owner",
          "type": "address"
        }
      ],
      "name": "balanceOf",
      "outputs": [
        {
          "internalType": "uint256",
          "name": "",
          "type": "uint256"
        }
      ],
      "stateMutability": "view",
      "type": "function",
      "constant": true
    },
    {
      "inputs": [],
      "name": "getName",
      "outputs": [
        {
          "internalType": "string",
          "name": "",
          "type": "string"
        }
      ],
      "stateMutability": "view",
      "type": "function",
      "constant": true
    },
    {
      "inputs": [],
      "name": "getSymbol",
      "outputs": [
        {
          "internalType": "string",
          "name": "",
          "type": "string"
        }
      ],
      "stateMutability": "view",
      "type": "function",
      "constant": true
    },
    {
      "inputs": [
        {
          "internalType": "uint256",
          "name": "",
          "type": "uint256"
        }
      ],
      "name": "kryptoBirdz",
      "outputs": [
        {
          "internalType": "string",
          "name": "",
          "type": "string"
        }
      ],
      "stateMutability": "view",
      "type": "function",
      "constant": true
    },
    {
      "inputs": [
        {
          "internalType": "uint256",
          "name": "_tokenId",
          "type": "uint256"
        }
      ],
      "name": "ownerOf",
      "outputs": [
        {
          "internalType": "address",
          "name": "",
          "type": "address"
        }
      ],
      "stateMutability": "view",
      "type": "function",
      "constant": true
    },
    {
      "inputs": [
        {
          "internalType": "uint256",
          "name": "index",
          "type": "uint256"
        }
      ],
      "name": "tokenByIndex",
      "outputs": [
        {
          "internalType": "uint256",
          "name": "",
          "type": "uint256"
        }
      ],
      "stateMutability": "view",
      "type": "function",
      "constant": true
    },
    {
      "inputs": [
        {
          "internalType": "address",
          "name": "ownerAddress",
          "type": "address"
        },
        {
          "internalType": "uint256",
          "name": "index",
          "type": "uint256"
        }
      ],
      "name": "tokenOfOwnerByIndex",
      "outputs": [
        {
          "internalType": "uint256",
          "name": "",
          "type": "uint256"
        }
      ],
      "stateMutability": "view",
      "type": "function",
      "constant": true
    },
    {
      "inputs": [],
      "name": "totalSupply",
      "outputs": [
        {
          "internalType": "uint256",
          "name": "",
          "type": "uint256"
        }
      ],
      "stateMutability": "view",
      "type": "function",
      "constant": true
    },
    {
      "inputs": [
        {
          "internalType": "address",
          "name": "_from",
          "type": "address"
        },
        {
          "internalType": "address",
          "name": "_to",
          "type": "address"
        },
        {
          "internalType": "uint256",
          "name": "_tokenId",
          "type": "uint256"
        }
      ],
      "name": "transferFrom",
      "outputs": [],
      "stateMutability": "payable",
      "type": "function",
      "payable": true
    },
    {
      "inputs": [
        {
          "internalType": "string",
          "name": "_kryptoBird",
          "type": "string"
        }
      ],
      "name": "mint",
      "outputs": [],
      "stateMutability": "nonpayable",
      "type": "function"
    }
  ],
  "bytecode": "0x60806040523480156200001157600080fd5b506040518060400160405280600a81526020017f4b727970746f42697264000000000000000000000000000000000000000000008152506040518060400160405280600681526020017f4b424952445a00000000000000000000000000000000000000000000000000008152508181816000908051906020019062000098929190620000bc565b508060019080519060200190620000b1929190620000bc565b5050505050620001d1565b828054620000ca906200019b565b90600052602060002090601f016020900481019282620000ee57600085556200013a565b82601f106200010957805160ff19168380011785556200013a565b828001600101855582156200013a579182015b82811115620001395782518255916020019190600101906200011c565b5b5090506200014991906200014d565b5090565b5b80821115620001685760008160009055506001016200014e565b5090565b7f4e487b7100000000000000000000000000000000000000000000000000000000600052602260045260246000fd5b60006002820490506001821680620001b457607f821691505b60208210811415620001cb57620001ca6200016c565b5b50919050565b6118e680620001e16000396000f3fe6080604052600436106100915760003560e01c80634f6ccce7116100595780634f6ccce7146101705780636352211e146101ad57806370a08231146101ea57806393ab6e5614610227578063d85d3d271461026457610091565b8063150704011461009657806317d7de7c146100c157806318160ddd146100ec57806323b872dd146101175780632f745c5914610133575b600080fd5b3480156100a257600080fd5b506100ab61028d565b6040516100b89190610f54565b60405180910390f35b3480156100cd57600080fd5b506100d661031f565b6040516100e39190610f54565b60405180910390f35b3480156100f857600080fd5b506101016103b1565b60405161010e9190610f8f565b60405180910390f35b610131600480360381019061012c9190611048565b6103be565b005b34801561013f57600080fd5b5061015a6004803603810190610155919061109b565b6103ce565b6040516101679190610f8f565b60405180910390f35b34801561017c57600080fd5b50610197600480360381019061019291906110db565b6104ba565b6040516101a49190610f8f565b60405180910390f35b3480156101b957600080fd5b506101d460048036038101906101cf91906110db565b61055d565b6040516101e19190611117565b60405180910390f35b3480156101f657600080fd5b50610211600480360381019061020c9190611132565b61060f565b60405161021e9190610f8f565b60405180910390f35b34801561023357600080fd5b5061024e600480360381019061024991906110db565b6106c7565b60405161025b9190610f54565b60405180910390f35b34801561027057600080fd5b5061028b60048036038101906102869190611294565b610773565b005b60606001805461029c9061130c565b80601f01602080910402602001604051908101604052809291908181526020018280546102c89061130c565b80156103155780601f106102ea57610100808354040283529160200191610315565b820191906000526020600020905b8154815290600101906020018083116102f857829003601f168201915b5050505050905090565b60606000805461032e9061130c565b80601f016020809104026020016040519081016040528092919081815260200182805461035a9061130c565b80156103a75780601f1061037c576101008083540402835291602001916103a7565b820191906000526020600020905b81548152906001019060200180831161038a57829003601f168201915b5050505050905090565b6000600580549050905090565b6103c9838383610876565b505050565b60003073ffffffffffffffffffffffffffffffffffffffff166370a08231846040518263ffffffff1660e01b81526004016104099190611117565b602060405180830381865afa158015610426573d6000803e3d6000fd5b505050506040513d601f19601f8201168201806040525081019061044a9190611353565b82111561045657600080fd5b600760008473ffffffffffffffffffffffffffffffffffffffff1673ffffffffffffffffffffffffffffffffffffffff16815260200190815260200160002082815481106104a7576104a6611380565b5b9060005260206000200154905092915050565b60003073ffffffffffffffffffffffffffffffffffffffff166318160ddd6040518163ffffffff1660e01b8152600401602060405180830381865afa158015610507573d6000803e3d6000fd5b505050506040513d601f19601f8201168201806040525081019061052b9190611353565b82111561053757600080fd5b6005828154811061054b5761054a611380565b5b90600052602060002001549050919050565b6000806002600084815260200190815260200160002060009054906101000a900473ffffffffffffffffffffffffffffffffffffffff169050600073ffffffffffffffffffffffffffffffffffffffff168173ffffffffffffffffffffffffffffffffffffffff161415610606576040517f08c379a00000000000000000000000000000000000000000000000000000000081526004016105fd90611421565b60405180910390fd5b80915050919050565b60008073ffffffffffffffffffffffffffffffffffffffff168273ffffffffffffffffffffffffffffffffffffffff161415610680576040517f08c379a0000000000000000000000000000000000000000000000000000000008152600401610677906114b3565b60405180910390fd5b600360008373ffffffffffffffffffffffffffffffffffffffff1673ffffffffffffffffffffffffffffffffffffffff168152602001908152602001600020549050919050565b600981815481106106d757600080fd5b9060005260206000200160009150905080546106f29061130c565b80601f016020809104026020016040519081016040528092919081815260200182805461071e9061130c565b801561076b5780601f106107405761010080835404028352916020019161076b565b820191906000526020600020905b81548152906001019060200180831161074e57829003601f168201915b505050505081565b600a81604051610783919061150f565b908152602001604051809103902060009054906101000a900460ff16156107df576040517f08c379a00000000000000000000000000000000000000000000000000000000081526004016107d690611598565b60405180910390fd5b60098190806001815401808255809150506001900390600052602060002001600090919091909150908051906020019061081a929190610e18565b506000600160098054905061082f91906115e7565b905061083b3382610ab8565b6001600a8360405161084d919061150f565b908152602001604051809103902060006101000a81548160ff0219169083151502179055505050565b600073ffffffffffffffffffffffffffffffffffffffff168273ffffffffffffffffffffffffffffffffffffffff1614156108e6576040517f08c379a00000000000000000000000000000000000000000000000000000000081526004016108dd9061168d565b60405180910390fd5b8273ffffffffffffffffffffffffffffffffffffffff166109068261055d565b73ffffffffffffffffffffffffffffffffffffffff161461095c576040517f08c379a00000000000000000000000000000000000000000000000000000000081526004016109539061171f565b60405180910390fd5b600360008473ffffffffffffffffffffffffffffffffffffffff1673ffffffffffffffffffffffffffffffffffffffff16815260200190815260200160002060008154809291906109ac9061173f565b9190505550600360008373ffffffffffffffffffffffffffffffffffffffff1673ffffffffffffffffffffffffffffffffffffffff1681526020019081526020016000206000815480929190610a0190611769565b9190505550816002600083815260200190815260200160002060006101000a81548173ffffffffffffffffffffffffffffffffffffffff021916908373ffffffffffffffffffffffffffffffffffffffff160217905550808273ffffffffffffffffffffffffffffffffffffffff168473ffffffffffffffffffffffffffffffffffffffff167fddf252ad1be2c89b69c2b068fc378daa952ba7f163c4a11628f55a4df523b3ef60405160405180910390a4505050565b610ac28282610ad9565b610acb81610c99565b610ad58282610ce2565b5050565b600073ffffffffffffffffffffffffffffffffffffffff168273ffffffffffffffffffffffffffffffffffffffff161415610b49576040517f08c379a0000000000000000000000000000000000000000000000000000000008152600401610b4090611824565b60405180910390fd5b610b5281610da6565b15610b92576040517f08c379a0000000000000000000000000000000000000000000000000000000008152600401610b8990611890565b60405180910390fd5b816002600083815260200190815260200160002060006101000a81548173ffffffffffffffffffffffffffffffffffffffff021916908373ffffffffffffffffffffffffffffffffffffffff160217905550600360008373ffffffffffffffffffffffffffffffffffffffff1673ffffffffffffffffffffffffffffffffffffffff1681526020019081526020016000206000815480929190610c3490611769565b9190505550808273ffffffffffffffffffffffffffffffffffffffff16600073ffffffffffffffffffffffffffffffffffffffff167fddf252ad1be2c89b69c2b068fc378daa952ba7f163c4a11628f55a4df523b3ef60405160405180910390a45050565b6005805490506006600083815260200190815260200160002081905550600581908060018154018082558091505060019003906000526020600020016000909190919091505550565b600760008373ffffffffffffffffffffffffffffffffffffffff1673ffffffffffffffffffffffffffffffffffffffff168152602001908152602001600020819080600181540180825580915050600190039060005260206000200160009091909190915055600760008373ffffffffffffffffffffffffffffffffffffffff1673ffffffffffffffffffffffffffffffffffffffff1681526020019081526020016000208054905060086000838152602001908152602001600020819055505050565b6000806002600084815260200190815260200160002060009054906101000a900473ffffffffffffffffffffffffffffffffffffffff169050600073ffffffffffffffffffffffffffffffffffffffff168173ffffffffffffffffffffffffffffffffffffffff161415915050919050565b828054610e249061130c565b90600052602060002090601f016020900481019282610e465760008555610e8d565b82601f10610e5f57805160ff1916838001178555610e8d565b82800160010185558215610e8d579182015b82811115610e8c578251825591602001919060010190610e71565b5b509050610e9a9190610e9e565b5090565b5b80821115610eb7576000816000905550600101610e9f565b5090565b600081519050919050565b600082825260208201905092915050565b60005b83811015610ef5578082015181840152602081019050610eda565b83811115610f04576000848401525b50505050565b6000601f19601f8301169050919050565b6000610f2682610ebb565b610f308185610ec6565b9350610f40818560208601610ed7565b610f4981610f0a565b840191505092915050565b60006020820190508181036000830152610f6e8184610f1b565b905092915050565b6000819050919050565b610f8981610f76565b82525050565b6000602082019050610fa46000830184610f80565b92915050565b6000604051905090565b600080fd5b600080fd5b600073ffffffffffffffffffffffffffffffffffffffff82169050919050565b6000610fe982610fbe565b9050919050565b610ff981610fde565b811461100457600080fd5b50565b60008135905061101681610ff0565b92915050565b61102581610f76565b811461103057600080fd5b50565b6000813590506110428161101c565b92915050565b60008060006060848603121561106157611060610fb4565b5b600061106f86828701611007565b935050602061108086828701611007565b925050604061109186828701611033565b9150509250925092565b600080604083850312156110b2576110b1610fb4565b5b60006110c085828601611007565b92505060206110d185828601611033565b9150509250929050565b6000602082840312156110f1576110f0610fb4565b5b60006110ff84828501611033565b91505092915050565b61111181610fde565b82525050565b600060208201905061112c6000830184611108565b92915050565b60006020828403121561114857611147610fb4565b5b600061115684828501611007565b91505092915050565b600080fd5b600080fd5b7f4e487b7100000000000000000000000000000000000000000000000000000000600052604160045260246000fd5b6111a182610f0a565b810181811067ffffffffffffffff821117156111c0576111bf611169565b5b80604052505050565b60006111d3610faa565b90506111df8282611198565b919050565b600067ffffffffffffffff8211156111ff576111fe611169565b5b61120882610f0a565b9050602081019050919050565b82818337600083830152505050565b6000611237611232846111e4565b6111c9565b90508281526020810184848401111561125357611252611164565b5b61125e848285611215565b509392505050565b600082601f83011261127b5761127a61115f565b5b813561128b848260208601611224565b91505092915050565b6000602082840312156112aa576112a9610fb4565b5b600082013567ffffffffffffffff8111156112c8576112c7610fb9565b5b6112d484828501611266565b91505092915050565b7f4e487b7100000000000000000000000000000000000000000000000000000000600052602260045260246000fd5b6000600282049050600182168061132457607f821691505b60208210811415611338576113376112dd565b5b50919050565b60008151905061134d8161101c565b92915050565b60006020828403121561136957611368610fb4565b5b60006113778482850161133e565b91505092915050565b7f4e487b7100000000000000000000000000000000000000000000000000000000600052603260045260246000fd5b7f4552433732313a207a65726f206164647265737320666f72207468697320746f60008201527f6b656e4964000000000000000000000000000000000000000000000000000000602082015250565b600061140b602583610ec6565b9150611416826113af565b604082019050919050565b6000602082019050818103600083015261143a816113fe565b9050919050565b7f4552433732313a2063616e2774207175657279207468652062616c616e63652060008201527f6f66207a65726f20616464726573730000000000000000000000000000000000602082015250565b600061149d602f83610ec6565b91506114a882611441565b604082019050919050565b600060208201905081810360008301526114cc81611490565b9050919050565b600081905092915050565b60006114e982610ebb565b6114f381856114d3565b9350611503818560208601610ed7565b80840191505092915050565b600061151b82846114de565b915081905092915050565b7f4572726f72202d206b727970746f4269726420616c726561647920657869737460008201527f732e000000000000000000000000000000000000000000000000000000000000602082015250565b6000611582602283610ec6565b915061158d82611526565b604082019050919050565b600060208201905081810360008301526115b181611575565b9050919050565b7f4e487b7100000000000000000000000000000000000000000000000000000000600052601160045260246000fd5b60006115f282610f76565b91506115fd83610f76565b9250828210156116105761160f6115b8565b5b828203905092915050565b7f4572726f723a2043616e6e6f74207472616e7366657220746f20746865207a6560008201527f726f206164647265737300000000000000000000000000000000000000000000602082015250565b6000611677602a83610ec6565b91506116828261161b565b604082019050919050565b600060208201905081810360008301526116a68161166a565b9050919050565b7f4572726f723a2043616e6e6f74207472616e73666572206120746f6b656e206e60008201527f6f74206f776e656420627920796f752100000000000000000000000000000000602082015250565b6000611709603083610ec6565b9150611714826116ad565b604082019050919050565b60006020820190508181036000830152611738816116fc565b9050919050565b600061174a82610f76565b9150600082141561175e5761175d6115b8565b5b600182039050919050565b600061177482610f76565b91507fffffffffffffffffffffffffffffffffffffffffffffffffffffffffffffffff8214156117a7576117a66115b8565b5b600182019050919050565b7f4552433732313a206d696e74696e6720746f20746865207a65726f206164647260008201527f6573732e00000000000000000000000000000000000000000000000000000000602082015250565b600061180e602483610ec6565b9150611819826117b2565b604082019050919050565b6000602082019050818103600083015261183d81611801565b9050919050565b7f4552433732313a20746f6b656e20616c726561647920657869737465642e0000600082015250565b600061187a601e83610ec6565b915061188582611844565b602082019050919050565b600060208201905081810360008301526118a98161186d565b905091905056fea26469706673582212206ec11fe985c20610fe5abc7e708809e6a5ce3c518973f3e54a8bda3b677f1b1764736f6c634300080b0033",
  "immutableReferences": {},
  "source": "// SPDX-License-Identifier: MIT\r\n\r\npragma solidity >=0.4.22 <0.9.0;\r\n\r\nimport './ERC721Connector.sol';\r\n\r\ncontract KryptoBird is ERC721Connector {\r\n\r\n  // array to store NFTs\r\n  string[] public kryptoBirdz;\r\n  // if a fileName of a _kyrptoBird already exists\r\n  mapping(string => bool) _kyrptoBirdExists;\r\n\r\n  function mint(string memory _kryptoBird) public {\r\n    // only mint if the _kryptoBird doesn't exist\r\n    require(!_kyrptoBirdExists[_kryptoBird], 'Error - kryptoBird already exists.');\r\n    // push the _kryptoBird instance into kryptoBirdz array\r\n    kryptoBirdz.push(_kryptoBird);\r\n    // generate the id form the length of kryptoBirdz array\r\n    uint _id = kryptoBirdz.length - 1;\r\n    // call the _mint() defined in ERC721.sol, to=msg.sender, tokenId=_id\r\n    _mint(msg.sender, _id);\r\n    // this instance of kyrptoBird already exists\r\n    _kyrptoBirdExists[_kryptoBird] = true;\r\n\r\n  }\r\n\r\n  constructor() ERC721Connector('KryptoBird', 'KBIRDZ') {}\r\n}\r\n",
  "sourcePath": "C:\\Users\\coding-guy\\Documents\\blockchain\\nft-marketplace\\src\\contracts\\KryptoBirdz.sol",
  "compiler": {
    "name": "solc",
    "version": "0.8.11+commit.d7f03943.Emscripten.clang"
  },
  "schemaVersion": "3.4.3",
  "updatedAt": "2022-02-08T10:01:41.547Z",
  "networkType": "ethereum",
  "devdoc": {
    "kind": "dev",
    "methods": {},
    "version": 1
  },
  "userdoc": {
    "kind": "user",
    "methods": {},
    "version": 1
  }
}