{
  "contractName": "KryptoBird",
  "abi": [
    {
      "inputs": [],
      "stateMutability": "nonpayable",
      "type": "constructor"
    },
    {
      "anonymous": false,
      "inputs": [
        {
          "indexed": true,
          "internalType": "address",
          "name": "from",
          "type": "address"
        },
        {
          "indexed": true,
          "internalType": "address",
          "name": "to",
          "type": "address"
        },
        {
          "indexed": true,
          "internalType": "uint256",
          "name": "tokenId",
          "type": "uint256"
        }
      ],
      "name": "Transfer",
      "type": "event"
    },
    {
      "inputs": [
        {
          "internalType": "address",
          "name": "_owner",
          "type": "address"
        }
      ],
      "name": "balanceOf",
      "outputs": [
        {
          "internalType": "uint256",
          "name": "",
          "type": "uint256"
        }
      ],
      "stateMutability": "view",
      "type": "function",
      "constant": true
    },
    {
      "inputs": [],
      "name": "getName",
      "outputs": [
        {
          "internalType": "string",
          "name": "",
          "type": "string"
        }
      ],
      "stateMutability": "view",
      "type": "function",
      "constant": true
    },
    {
      "inputs": [],
      "name": "getSymbol",
      "outputs": [
        {
          "internalType": "string",
          "name": "",
          "type": "string"
        }
      ],
      "stateMutability": "view",
      "type": "function",
      "constant": true
    },
    {
      "inputs": [
        {
          "internalType": "uint256",
          "name": "",
          "type": "uint256"
        }
      ],
      "name": "kryptoBirdz",
      "outputs": [
        {
          "internalType": "string",
          "name": "",
          "type": "string"
        }
      ],
      "stateMutability": "view",
      "type": "function",
      "constant": true
    },
    {
      "inputs": [
        {
          "internalType": "uint256",
          "name": "_tokenId",
          "type": "uint256"
        }
      ],
      "name": "ownerOf",
      "outputs": [
        {
          "internalType": "address",
          "name": "",
          "type": "address"
        }
      ],
      "stateMutability": "view",
      "type": "function",
      "constant": true
    },
    {
      "inputs": [
        {
          "internalType": "string",
          "name": "_kryptoBird",
          "type": "string"
        }
      ],
      "name": "mint",
      "outputs": [],
      "stateMutability": "nonpayable",
      "type": "function"
    }
  ],
  "bytecode": "0x60806040523480156200001157600080fd5b506040518060400160405280600a81526020017f4b727970746f42697264000000000000000000000000000000000000000000008152506040518060400160405280600681526020017f4b424952445a00000000000000000000000000000000000000000000000000008152508181816000908051906020019062000098929190620000bc565b508060019080519060200190620000b1929190620000bc565b5050505050620001d1565b828054620000ca906200019b565b90600052602060002090601f016020900481019282620000ee57600085556200013a565b82601f106200010957805160ff19168380011785556200013a565b828001600101855582156200013a579182015b82811115620001395782518255916020019190600101906200011c565b5b5090506200014991906200014d565b5090565b5b80821115620001685760008160009055506001016200014e565b5090565b7f4e487b7100000000000000000000000000000000000000000000000000000000600052602260045260246000fd5b60006002820490506001821680620001b457607f821691505b60208210811415620001cb57620001ca6200016c565b5b50919050565b61103a80620001e16000396000f3fe608060405234801561001057600080fd5b50600436106100625760003560e01c8063150704011461006757806317d7de7c146100855780636352211e146100a357806370a08231146100d357806393ab6e5614610103578063d85d3d2714610133575b600080fd5b61006f61014f565b60405161007c91906108fa565b60405180910390f35b61008d6101e1565b60405161009a91906108fa565b60405180910390f35b6100bd60048036038101906100b89190610966565b610273565b6040516100ca91906109d4565b60405180910390f35b6100ed60048036038101906100e89190610a1b565b610325565b6040516100fa9190610a57565b60405180910390f35b61011d60048036038101906101189190610966565b6103dd565b60405161012a91906108fa565b60405180910390f35b61014d60048036038101906101489190610ba7565b610489565b005b60606001805461015e90610c1f565b80601f016020809104026020016040519081016040528092919081815260200182805461018a90610c1f565b80156101d75780601f106101ac576101008083540402835291602001916101d7565b820191906000526020600020905b8154815290600101906020018083116101ba57829003601f168201915b5050505050905090565b6060600080546101f090610c1f565b80601f016020809104026020016040519081016040528092919081815260200182805461021c90610c1f565b80156102695780601f1061023e57610100808354040283529160200191610269565b820191906000526020600020905b81548152906001019060200180831161024c57829003601f168201915b5050505050905090565b6000806002600084815260200190815260200160002060009054906101000a900473ffffffffffffffffffffffffffffffffffffffff169050600073ffffffffffffffffffffffffffffffffffffffff168173ffffffffffffffffffffffffffffffffffffffff16141561031c576040517f08c379a000000000000000000000000000000000000000000000000000000000815260040161031390610cc3565b60405180910390fd5b80915050919050565b60008073ffffffffffffffffffffffffffffffffffffffff168273ffffffffffffffffffffffffffffffffffffffff161415610396576040517f08c379a000000000000000000000000000000000000000000000000000000000815260040161038d90610d55565b60405180910390fd5b600360008373ffffffffffffffffffffffffffffffffffffffff1673ffffffffffffffffffffffffffffffffffffffff168152602001908152602001600020549050919050565b600481815481106103ed57600080fd5b90600052602060002001600091509050805461040890610c1f565b80601f016020809104026020016040519081016040528092919081815260200182805461043490610c1f565b80156104815780601f1061045657610100808354040283529160200191610481565b820191906000526020600020905b81548152906001019060200180831161046457829003601f168201915b505050505081565b6005816040516104999190610db1565b908152602001604051809103902060009054906101000a900460ff16156104f5576040517f08c379a00000000000000000000000000000000000000000000000000000000081526004016104ec90610e3a565b60405180910390fd5b6004819080600181540180825580915050600190039060005260206000200160009091909190915090805190602001906105309291906107be565b50600060016004805490506105459190610e89565b9050610551338261058c565b60016005836040516105639190610db1565b908152602001604051809103902060006101000a81548160ff0219169083151502179055505050565b600073ffffffffffffffffffffffffffffffffffffffff168273ffffffffffffffffffffffffffffffffffffffff1614156105fc576040517f08c379a00000000000000000000000000000000000000000000000000000000081526004016105f390610f2f565b60405180910390fd5b6106058161074c565b15610645576040517f08c379a000000000000000000000000000000000000000000000000000000000815260040161063c90610f9b565b60405180910390fd5b816002600083815260200190815260200160002060006101000a81548173ffffffffffffffffffffffffffffffffffffffff021916908373ffffffffffffffffffffffffffffffffffffffff160217905550600360008373ffffffffffffffffffffffffffffffffffffffff1673ffffffffffffffffffffffffffffffffffffffff16815260200190815260200160002060008154809291906106e790610fbb565b9190505550808273ffffffffffffffffffffffffffffffffffffffff16600073ffffffffffffffffffffffffffffffffffffffff167fddf252ad1be2c89b69c2b068fc378daa952ba7f163c4a11628f55a4df523b3ef60405160405180910390a45050565b6000806002600084815260200190815260200160002060009054906101000a900473ffffffffffffffffffffffffffffffffffffffff169050600073ffffffffffffffffffffffffffffffffffffffff168173ffffffffffffffffffffffffffffffffffffffff161415915050919050565b8280546107ca90610c1f565b90600052602060002090601f0160209004810192826107ec5760008555610833565b82601f1061080557805160ff1916838001178555610833565b82800160010185558215610833579182015b82811115610832578251825591602001919060010190610817565b5b5090506108409190610844565b5090565b5b8082111561085d576000816000905550600101610845565b5090565b600081519050919050565b600082825260208201905092915050565b60005b8381101561089b578082015181840152602081019050610880565b838111156108aa576000848401525b50505050565b6000601f19601f8301169050919050565b60006108cc82610861565b6108d6818561086c565b93506108e681856020860161087d565b6108ef816108b0565b840191505092915050565b6000602082019050818103600083015261091481846108c1565b905092915050565b6000604051905090565b600080fd5b600080fd5b6000819050919050565b61094381610930565b811461094e57600080fd5b50565b6000813590506109608161093a565b92915050565b60006020828403121561097c5761097b610926565b5b600061098a84828501610951565b91505092915050565b600073ffffffffffffffffffffffffffffffffffffffff82169050919050565b60006109be82610993565b9050919050565b6109ce816109b3565b82525050565b60006020820190506109e960008301846109c5565b92915050565b6109f8816109b3565b8114610a0357600080fd5b50565b600081359050610a15816109ef565b92915050565b600060208284031215610a3157610a30610926565b5b6000610a3f84828501610a06565b91505092915050565b610a5181610930565b82525050565b6000602082019050610a6c6000830184610a48565b92915050565b600080fd5b600080fd5b7f4e487b7100000000000000000000000000000000000000000000000000000000600052604160045260246000fd5b610ab4826108b0565b810181811067ffffffffffffffff82111715610ad357610ad2610a7c565b5b80604052505050565b6000610ae661091c565b9050610af28282610aab565b919050565b600067ffffffffffffffff821115610b1257610b11610a7c565b5b610b1b826108b0565b9050602081019050919050565b82818337600083830152505050565b6000610b4a610b4584610af7565b610adc565b905082815260208101848484011115610b6657610b65610a77565b5b610b71848285610b28565b509392505050565b600082601f830112610b8e57610b8d610a72565b5b8135610b9e848260208601610b37565b91505092915050565b600060208284031215610bbd57610bbc610926565b5b600082013567ffffffffffffffff811115610bdb57610bda61092b565b5b610be784828501610b79565b91505092915050565b7f4e487b7100000000000000000000000000000000000000000000000000000000600052602260045260246000fd5b60006002820490506001821680610c3757607f821691505b60208210811415610c4b57610c4a610bf0565b5b50919050565b7f4552433732313a207a65726f206164647265737320666f72207468697320746f60008201527f6b656e4964000000000000000000000000000000000000000000000000000000602082015250565b6000610cad60258361086c565b9150610cb882610c51565b604082019050919050565b60006020820190508181036000830152610cdc81610ca0565b9050919050565b7f4552433732313a2063616e2774207175657279207468652062616c616e63652060008201527f6f66207a65726f20616464726573730000000000000000000000000000000000602082015250565b6000610d3f602f8361086c565b9150610d4a82610ce3565b604082019050919050565b60006020820190508181036000830152610d6e81610d32565b9050919050565b600081905092915050565b6000610d8b82610861565b610d958185610d75565b9350610da581856020860161087d565b80840191505092915050565b6000610dbd8284610d80565b915081905092915050565b7f4572726f72202d206b727970746f4269726420616c726561647920657869737460008201527f732e000000000000000000000000000000000000000000000000000000000000602082015250565b6000610e2460228361086c565b9150610e2f82610dc8565b604082019050919050565b60006020820190508181036000830152610e5381610e17565b9050919050565b7f4e487b7100000000000000000000000000000000000000000000000000000000600052601160045260246000fd5b6000610e9482610930565b9150610e9f83610930565b925082821015610eb257610eb1610e5a565b5b828203905092915050565b7f4552433732313a206d696e74696e6720746f20746865207a65726f206164647260008201527f6573732e00000000000000000000000000000000000000000000000000000000602082015250565b6000610f1960248361086c565b9150610f2482610ebd565b604082019050919050565b60006020820190508181036000830152610f4881610f0c565b9050919050565b7f4552433732313a20746f6b656e20616c726561647920657869737465642e0000600082015250565b6000610f85601e8361086c565b9150610f9082610f4f565b602082019050919050565b60006020820190508181036000830152610fb481610f78565b9050919050565b6000610fc682610930565b91507fffffffffffffffffffffffffffffffffffffffffffffffffffffffffffffffff821415610ff957610ff8610e5a565b5b60018201905091905056fea264697066735822122047cd135030f32002cff688d88024ddac70af0eaf3706a7734506fc527c5d2eef64736f6c634300080b0033",
  "immutableReferences": {},
  "source": "// SPDX-License-Identifier: MIT\r\n\r\npragma solidity >=0.4.22 <0.9.0;\r\n\r\nimport './ERC721Connector.sol';\r\n\r\ncontract KryptoBird is ERC721Connector {\r\n\r\n  // array to store NFTs\r\n  string[] public kryptoBirdz;\r\n  // if a fileName of a _kyrptoBird already exists\r\n  mapping(string => bool) _kyrptoBirdExists;\r\n\r\n  function mint(string memory _kryptoBird) public {\r\n    // only mint if the _kryptoBird doesn't exist\r\n    require(!_kyrptoBirdExists[_kryptoBird], 'Error - kryptoBird already exists.');\r\n    // push the _kryptoBird instance into kryptoBirdz array\r\n    kryptoBirdz.push(_kryptoBird);\r\n    // generate the id form the length of kryptoBirdz array\r\n    uint _id = kryptoBirdz.length - 1;\r\n    // call the _mint() defined in ERC721.sol, to=msg.sender, tokenId=_id\r\n    _mint(msg.sender, _id);\r\n    // this instance of kyrptoBird already exists\r\n    _kyrptoBirdExists[_kryptoBird] = true;\r\n\r\n  }\r\n\r\n  constructor() ERC721Connector('KryptoBird', 'KBIRDZ') {}\r\n}\r\n",
  "sourcePath": "C:\\Users\\coding-guy\\Documents\\blockchain\\nft-marketplace\\src\\contracts\\KryptoBirdz.sol",
  "compiler": {
    "name": "solc",
    "version": "0.8.11+commit.d7f03943.Emscripten.clang"
  },
  "schemaVersion": "3.4.3",
  "updatedAt": "2022-02-06T07:42:50.511Z",
  "networkType": "ethereum",
  "devdoc": {
    "kind": "dev",
    "methods": {},
    "version": 1
  },
  "userdoc": {
    "kind": "user",
    "methods": {},
    "version": 1
  }
}